:020000040002F8
:107000005084022061740200A9BF0200D1BD0200B9
:107010006D740200B99D0200E5C902000000000085
:10702000000000000000000000000000C17302002A
:1070300005B402000000000005740200797402002B
:10704000B9C002007B740200C9C90200E5C4020095
:10705000F5C402007B7402001DBC02007B740200B8
:107060007B7402007B7402007B7402007B7402005C
:107070007B74020079C102007B7402007B74020001
:107080003DCB0200A1C102007B7402007B740200B0
:107090007B7402007B74020015C5020049C5020022
:1070A0007B7402007B74020079C902007B740200C9
:1070B0007B7402007B7402000000000000000000EE
:1070C0007B7402007B7402007B7402007B740200FC
:1070D0002DC202007B7402007B7402007B740200EC
:1070E000D5C9020011C10200C17B020000000000EE
:1070F000000000007B7402000000000005C50200D3
:10710000000000000000000000000000000000007F
:10711000000000000000000000000000000000006F
:10712000000000000000000000000000000000005F
:10713000000000000000000000000000000000004F
:10714000000000000000000000000000000000003F
:10715000000000000000000000000000000000002F
:10716000000000000000000000000000000000001F
:10717000000000000000000000000000000000000F
:1071800000000000000000000000000000000000FF
:1071900000000000000000000000000000000000EF
:1071A00000000000000000000000000000000000DF
:1071B00000000000000000000000000000000000CF
:1071C00000000000000000000000000000000000BF
:1071D00000000000000000000000000000000000AF
:1071E000000000000000000000000000000000009F
:1071F000000000000000000000000000000000008F
:10720000DFF80CD000F09EFC0048004759BD030099
:107210005084022030B450E8012F93B2C489234433
:107220008489A34228BF1B1B0489A34202BFBFF36A
:107230002F8F002007E0C3EA020340E80134002C4E
:10724000E9D14FF001000A6030BC704750E8012FCF
:10725000C2EA024240E801210029F7D1704730B468
:1072600050E8022F1FFAA2F3C488A34202BFBFF363
:107270002F8F00200DE0C48923448489A34228BFB6
:107280001B1BC2EA034340E80234002CE8D14FF054
:1072900001000A6030BC704750E8022FC2EA224267
:1072A00040E802210029F7D17047034653E8022F36
:1072B000D988B2EB324F4FF0000017BF92B241EACB
:1072C000014142EA014104E05A68B2EB324F08BF83
:1072D000012043E80212002AE8D1704730B4044686
:1072E00054E8000F0D4644E80053002BF8D1156018
:1072F00030BC704730B4044654E8000F40EA010542
:1073000044E80053002BF7D1156030BC704730B40F
:10731000044654E8000F00EA010544E80053002B3E
:10732000F7D1156030BC704730B4044654E8000F04
:1073300080EA010544E80053002BF7D1156030BC0A
:10734000704730B4044654E8000F00EB010544E8F0
:107350000053002BF7D1156030BC704730B40446A1
:1073600054E8000FA0EB010544E80053002BF7D1CF
:10737000156030BC704770B404464FF0000054E80C
:10738000006F0D68AE4207BF44E80023012044E8C7
:1073900000630E60002B1CBF0020F0E770BC70473C
:1073A00030B4044654E8000F88422CBF451A054605
:1073B00044E80053002BF5D1156030BC7047000045
:1073C000264B19680868B0E8F04F80F30988BFF3CE
:1073D0006F8F4FF0000080F31188704700000000AD
:1073E0000748006880F3088862B661B6BFF34F8F24
:1073F000BFF36F8F4FF4F07080F3118800DF00004F
:1074000000700200EFF30980BFF36F8F134B1A680F
:107410001EF0100F08BF20ED108A20E9F04F106019
:1074200008B44FF0400080F31188BFF34F8FBFF3D3
:107430006F8F23F071FD4FF0000080F3118808BCBE
:1074400019680868B0E8F04F1EF0100F08BFB0ECE4
:10745000108A80F30988BFF36F8F7047882C002053
:107460000648804706480047FEE7FEE7FEE7FEE7DE
:10747000FEE7FEE7FEE7FEE7FEE7FEE79DC7020048
:10748000017202009FED1A1AF5EE000A40EE010AA1
:10749000BDEEE00AF5EEC00A10EE100AF1EE10FAA9
:1074A00038BF401E00EE100A1349F7EE001AB8EE7E
:1074B000C00A30EEC00ADFED0F0A20EE200AFCEE13
:1074C000C00A10EE900AC0F3080000EE900A01EB2B
:1074D0008000F8EE600A90ED011A70EE600A90EDFF
:1074E000000A71EEE01A21EE800A00EE810A704770
:1074F00083F9223E0000004454940600DFED1D0A8B
:10750000B5EEC00A60EE200ABDEEE01A11EE100AD8
:10751000F1EE10FA38BF401E00EE100AB8EEC00AB5
:1075200030EEC00ADFED140A20EE200AB4EEE00AC5
:10753000F1EE10FAA8BF30EE600AFCEEC00A0F4967
:10754000F7EE001A10EE900AC0F3080000EE900A61
:1075500001EB8000F8EE600A90ED011A70EE600A0F
:1075600090ED000A71EEE01A21EE800A00EE810A29
:107570007047000083F9223E000000445494060046
:107580002DE9F05F0546002092469B468846064658
:10759000814640241BE0284641464746224600F0EB
:1075A00060F853465A46C01A914110D31146184606
:1075B000224600F047F82D1A67EB01084F46224695
:1075C0000120002100F03EF817EB00094E41201E7B
:1075D000A4F10104DFDC484631462A464346BDE8B3
:1075E000F09F2DE9F0410024061B254671F10006AD
:1075F00005DA01240027D0EB070067EB0101161E16
:1076000073F1000605DA0027D2EB0702012567EBCC
:107610000303FFF7B5FF86460E4617469C46AC426D
:1076200004D00025D0EB050E65EB010624B1002047
:10763000D2EB000760EB030C704631463A466346D6
:10764000BDE8F081202A04DB203A00FA02F1002094
:1076500070479140C2F1200320FA03F31943904090
:107660007047202A04DB203A21FA02F000217047FB
:1076700021FA02F3D040C2F120029140084319469A
:1076800070470000004870471C9D06000649074AE5
:107690000868504343F239021044086040087047BC
:1076A0000149086070470000383700206D4EC64120
:1076B00010B5441A0346944209D28418114403E0D9
:1076C00011F8013D04F8013D521EF9D210BD40EA07
:1076D0000104A40703D009E010C9121F10C3042A33
:1076E000FAD203E011F8014B03F8014B521EF9D214
:1076F00010BDD2B201E000F8012B491EFBD2704749
:107700000022F6E710B513460A4604461946FFF76D
:10771000F0FF204610BD421C10F8011B0029FBD1D0
:10772000801A704730B504460020034600E05B1C19
:10773000934203D2E05CCD5C401BF8D030BD0346E1
:1077400011F8012B00F8012B002AF9D118467047D7
:1077500030B505460020034600E05B1C934205D28D
:10776000EC5CC85C201A01D1002CF6D130BD2DE9AB
:10777000FE4F81EA030404F0004421F0004100942C
:107780004FF0000B23F0004350EA01045ED052EAB0
:1077900003045BD0C3F30A54C1F30A552C44A4F28A
:1077A000F3340194A0FB0254C1F3130141F480119E
:1077B000C3F3130343F4801301FB024400FB034EA5
:1077C000840A970A44EA815447EA8357A4FB07686E
:1077D00002958D0A05FB07854FEA932C04FB0C5498
:1077E0002705029D4FEA065847EA1637B5EB08050C
:1077F0006EEB070C870E920E47EA811742EA83125E
:10780000A7FB0201B6EB0B0164EB00042B0D43EA6E
:107810000C335E1844EB1C50DA465146E7FB02017C
:10782000C5F313044FEA0B3343EA14534FEA04320F
:10783000019C43EA0603A4F10C040294009CCDE9E8
:1078400000B400F015F903B0BDE8F08F0020014648
:10785000F9E72DE9F04D81EA030404F0004B21F033
:10786000004514464FF0000A23F0004150EA05029B
:1078700020D054EA01021DD0C5F30A570246C5F3D1
:107880001303C1F31300C1F30A5640F4801543F407
:107890008013A7EB0608101BD64608F2FD3873EBE1
:1078A000050002D308F1010801E092185B41B8F12C
:1078B000000F03DA00200146BDE8F08D00204FF4F0
:1078C0008011064684460EE0171B73EB050705D3AF
:1078D000121B63EB050306434CEA010C49084FEA0F
:1078E000300092185B4150EA0107EDD152EA0300E3
:1078F00012D082EA040083EA0501084305D0101B78
:10790000AB4106D20122002306E000224FF00043E3
:1079100002E06FF0010253101AEB06004CEB085125
:1079200010EB0A0041EB0B01BDE8F04D00F091B8FF
:1079300030B4044696230800214604D0B62330BC58
:10794000002200F058B820460021F8E70EB5C10F1C
:1079500080EAE0700844CA07002140F233438DE812
:107960000E000A460B4600F083F803B000BD70B568
:10797000C1F30A5201F000450024C1F3130140F2A3
:10798000FF3341F480119A4201DA002070BD40F2C9
:1079900033439A42A2F2334203DC5242FFF761FEC4
:1079A00000E090402C43F1D0404270BD01F0004314
:1079B00030B421F0004150EA010206D00A0DA2F5D0
:1079C0006072C1F31301002A02DC30BC0020704752
:1079D000440F44EAC104C100E01830BC00EBC250BF
:1079E000AFF300800029A8BF7047401C490008BFC2
:1079F00020F00100704710B4B0FA80FC00FA0CF0DF
:107A000050EA010404BF10BC704749B1CCF1200416
:107A100021FA04F411FA0CF118BF012121430843A3
:107A2000A3EB0C01CB1D4FEA00614FEA102042BFCF
:107A3000002010BC704700EBC35010440029A4BFC5
:107A400010BC7047401C490008BF20F0010010BC6A
:107A5000704710B5141E73F1000408DA401C41F1A0
:107A6000000192185B411A4301D120F0010010BDC2
:107A70002DE9F04D92469B4611B1B1FA81F202E038
:107A8000B0FA80F220329046FFF7DCFD04460F4644
:107A900040EA0A0041EA0B0153465A46084313D014
:107AA000114653EA010019D0C8F140025046FFF7D1
:107AB000D8FD05460E46504659464246FFF7C2FDE0
:107AC000084305D0012004E020463946BDE8F08D8A
:107AD0000020054346EAE0762C4337430A986305C5
:107AE000E40AA0EB08000022FD0A44EA47540A30E9
:107AF00002D500200146E9E7010510196941DDE9D9
:107B0000084500196941BDE8F04DA2E7002801DBF6
:107B1000C0F10040002901DBC1F10041814202D2E5
:107B20004FF0004004E04FF0005001D14FF0C04052
:107B30004FEA2062EFF3008162F31F6181F3008856
:107B400070470000064C074D06E0E06840F0010376
:107B500094E8070098471034AC42F6D3FFF754FB83
:107B6000E0A3060000A4060070B58C1810F8015BB5
:107B700015F0070301D110F8013B2A1106D110F8C6
:107B8000012B03E010F8016B01F8016B5B1EF9D1CA
:107B90002B0705D40023521E0DD401F8013BFAE750
:107BA00010F8013BCB1A921C03E013F8015B01F8BB
:107BB000015B521EF9D5A142D8D3002070BD000050
:107BC000054B4FF0FF321A6053F8042C034B1A6038
:107BD0001A68034B1A60704704BA02504C440220E2
:107BE00008BA025001EB820204388A4201D1002017
:107BF000704752F8043D1BBA40F8043FF5E7000017
:107C0000354B8EB019461A680092009AD207FAD501
:107C1000324B334A1A600A680192019AD007FAD5AA
:107C2000304A1A600A680292029AD207FAD52E4A9E
:107C30001A600A680392039AD007FAD52B4A1A6091
:107C40000A680492049AD207FAD5294A1A600A6887
:107C50000592059AD007FAD5264A1A600A68069254
:107C6000069AD207FAD5244A1A600A680792079A38
:107C7000D007FAD5214A1A600A680892089AD207F2
:107C8000FAD51F4A1A600A680992099AD007FAD5EC
:107C90001C4A1A600A680A920A9AD207FAD51A4A46
:107CA0001A6008680B900B98C007FAD51A600A682A
:107CB0000C920C9AD007FAD5144A1A600A680D92F1
:107CC0000D9AD207FAD5124A1A600E210D230F22FF
:107CD00000200EB000F080BDB0B0025080B0025065
:107CE000804301294063392180700129802054217B
:107CF00000D13490C0403490C0302029C0530D9042
:107D000000413890832308C880E3102100413821C6
:107D1000CF4308C810B5504B96B01C461A68019264
:107D2000019AD207FAD54D4B4D4A1A602268029249
:107D3000029AD207FAD54B4A1A604B4A42EA80406F
:107D400022680392039AD207FAD518602268049237
:107D5000049AD007FAD5454A1A60A2F5800242EA91
:107D6000814122680592059AD207FAD519602268E6
:107D70000692069AD007FAD53D4A1A602268079201
:107D8000079AD107FAD53B4A1A6022680892089AE6
:107D9000D207FAD5384A1A6022680992099AD007A0
:107DA000FAD5364A1A6022680A920A9AD107FAD599
:107DB000334A1A6022680B920B9AD207FAD5314ADD
:107DC0001A6022680C920C9AD007FAD52E4A1A60D3
:107DD00022680D920D9AD107FAD52C4A1A602268B2
:107DE0000E920E9AD207FAD5294A1A6022680F928B
:107DF0000F9AD007FAD5274A1A6021681091109976
:107E0000C907FAD51A60144B1A46196811911199CD
:107E1000C807FAD5114B20491960116812911299BF
:107E2000C907FAD51D491960116813911399CC0738
:107E3000FAD50B491960116814911499C807FAD53D
:107E400017491960116815911599C907FAD5154A8E
:107E50001A6016B010BD00BFB0B0025080B0025022
:107E60004004419000862929D81001C8401441904F
:107E700040142129401465210034409000310C90B9
:107E8000C0400C90C030202940960D900041609079
:107E9000031645C80086112100416021594644C897
:107EA0004014459040142D90F0B5454B89B01D46C7
:107EB0001C680194019CE407FAD5424BDFF80CE101
:107EC000DFF80CC113449B0000241A680B181E2B0A
:107ED00088BFC0F11E011F320B1852095343B3F57E
:107EE000806F82BF4FF48061B1FBF2F1091A00F19B
:107EF000A05000F52C402746A14233DC2B680493A8
:107F0000049BDB07FAD5304B1B682968059105995E
:107F1000CF07FAD52D4C2E49236000231E469342ED
:107F200003F1010040D120F0010229481946002642
:107F30008A423CD8296806910699CE07FAD5254988
:107F40000968286807900798C007FAD5216020487B
:107F500000210C468B422DD11D4900209A422CD87D
:107F600009B0F0BD2B680293029BDB07FAD5031919
:107F70009B001B682E680396039EF607FAD5CEF881
:107F800000300023934203F1010306D1164623F08B
:107F90000103B34204D80134AEE7CCF80070F1E736
:107FA000CCF800700136F4E70E600346B7E70660D0
:107FB0000131BDE704600131CCE708600133CDE752
:107FC000B4B0025024AC00147CB00250D4B00250C3
:107FD000D8B0025078B00250F0B5294D85B02C468B
:107FE0002E680096009EF607FAD500F1A05000F525
:107FF0002C4080000568206801900198C707FAD5D9
:108000002048214F056002EB8306B24229D15A1C59
:108010001D4E22F0010200279A4227D823680293BE
:10802000029BDE07FAD5194B0B449B001B681F33DC
:108030005B099A4213D2216803910399C907FAD5C3
:10804000154400219B1A104A056008468B4210D83F
:108050005A1C0D4922F0010200209A420CD805B0AA
:10806000F0BD52F804CBC7F800C0CEE7376001334B
:10807000D2E710600131E9E708600133EDE700BFA6
:10808000B4B00250D4B00250D8B0025024AC0014A6
:1080900010B5494B94B019461A680092009AD2075D
:1080A000FAD5464B464A1A600A680192019AD407EB
:1080B000FAD5444A1A600A680292029AD007FAD5A1
:1080C000414818600A680392039AD207FAD53F4ADA
:1080D0001A600A680492049AD407FAD53C4A1A60D6
:1080E0000A680592059AD207FAD53A4A1A600A68D0
:1080F0000692069AD407FAD5374A1A600A68079298
:10810000079AD207FAD5354A1A600A680892089A7F
:10811000D407FAD5324A1A600A680992099AD20736
:10812000FAD5304A1A600A680A920A9AD407FAD530
:108130002D4A1A600A680B920B9AD207FAD52B4A7D
:108140001A600A680C920C9AD407FAD5284A1A6069
:108150000A680D920D9AD207FAD5264A1A600A6863
:108160000E920E9AD407FAD5234A1A600A680F9223
:108170000F9AD207FAD5214A1A600F4B19461C688C
:108180001094109CE407FAD50C4B18600868119005
:108190001198C407FAD51A600A681292129AD00789
:1081A000FAD5174A1A600A681392139AD207FAD5B9
:1081B000144A1A6014B010BDB0B0025080B0025022
:1081C000809065210004099040966590808061212F
:1081D0008020082180206490008161900046102159
:1081E000008111210041442180202029024610C82D
:1081F00000860921802060214021282940966521A0
:1082000040962529594614C810B5544B98B01946C4
:108210001A680192019AD207FAD5514B514A1A6055
:108220000A680292029AD407FAD54F4A1A600A687D
:108230000392039AD007FAD54C4818600A68049252
:10824000049AD207FAD54A4A1A600A680592059A32
:10825000D407FAD5474A1A600A680692069AD207E6
:10826000FAD5454A1A600A680792079AD407FAD5E0
:10827000424A1A600A680892089AD207FAD5404A18
:108280001A600A680992099AD407FAD53D4A1A6019
:108290000A680A920A9AD207FAD53B4A1A600A6813
:1082A0000B920B9AD407FAD5384A1A600A680C92D6
:1082B0000C9AD207FAD5364A1A600A680D920D9ABE
:1082C000D407FAD5334A1A600A680E920E9AD2077A
:1082D000FAD5314A1A600A680F920F9AD407FAD574
:1082E0002E4A1A600A681092109AD207FAD52C4AC0
:1082F0001A601A4B19461C681194119CE407FAD5B0
:10830000174B1860086812901298C407FAD51A60C3
:108310000A681392139AD007FAD5124A1A600A68AB
:108320001492149AD207FAD51E4A1A600A68159256
:10833000159AD407FAD51C4A1A600A681692169A3A
:10834000D007FAD5194A1A600A681792179AD20705
:10835000FAD5174A1A6018B010BD00BFB0B002506D
:1083600080B00250009365210004319040966590E2
:108370000083612100C3302100C3649000816190BB
:1083800000461021008111210041442100C3202911
:108390000C4610C80086312100C3602140C1282945
:1083A000409665210013319040962529594614C8FE
:1083B000400432492DE9F041814B1D689868203313
:1083C000A0B01E461A680192019AD707FAD57D4BD4
:1083D0007D4A1A6032680292029AD407FAD57B4A23
:1083E0001A607B4A1446116803910399C907FAD5AC
:1083F000784A1168C1F3402137680497049FFF074A
:10840000FAD5754F1F6027680597059FFF07FAD5B6
:108410001768002900F0CF80B90540F1CC803168A1
:1084200006910699CF07FAD56C4919602168079122
:108430000799C907FAD51168C1F340213768089731
:10844000089FFF07FAD5664F1F6027680997099FA5
:10845000FF07FAD51268002900F0AF80910540F1BE
:10846000AC8032680A920A9AD207FAD5564A1A6044
:1084700032680B920B9AD707FAD55A4A1A603168BC
:108480000C910C99CC07FAD55749196031680D91B8
:108490000D99C907FAD55549196031680E910E99A1
:1084A000CF07FAD55249196031680F910F99CC075F
:1084B000FAD550491960504B1E4619681091109911
:1084C000C907FAD53F4C4D4B236033681193119B7C
:1084D000DB07FAD54A4B236033681293129BDF0700
:1084E000FAD5484B23603A4B984619681391139973
:1084F000C907FAD5324F386033681493149BDB07F1
:10850000FAD5226033681593159BD807FAD53E4BF0
:10851000236033681693169BD907FAD53B4B23602B
:1085200033681793179BDA07FAD5394B2360336802
:108530001893189BDB07FAD5364B236033681993E1
:10854000199BD807FAD5344B236033681A931A9BCA
:10855000D907FAD5314B236033681B931B9BDA078D
:10856000FAD52F4B236000F0D1F908BBD8F80030C2
:108570001C931C9BDB07F9D53D6033681D931D9B45
:10858000D907FAD5274B236033681E931E9BDA0761
:10859000FAD5254B2360D8F800301F931F9BDB07CB
:1085A000F9D50C4B1B6813F4805F204B08BF1846AD
:1085B00020B0BDE8F0811E48FAE71E48F8E700BF8A
:1085C00090B0025080B0025000100251C01F7229BA
:1085D000B4B0025088B00250C0CF0129C01F0E298C
:1085E000C03F002940010249003184A8000016491B
:1085F000400108A180440888B0B00250C04470888F
:1086000080077A41C0077E4100006A49800616490A
:1086100040006E490002002100822021408220217A
:108620008082242140A161A100C861510308F100AA
:108630000108F1000208F10008B540B12028014608
:108640004FF0070228BF20210020FFF72DFC024B2E
:1086500000221A6008BD00BF1CB80250F0B51D68AA
:1086600085B001F01F040DB91F2C25D1154D2E46E4
:108670002F680197019FFF07FAD500F1A05000F580
:108680002C408000006835680395039DED07FAD5FE
:108690000D4D00EB611028600C48006802901F2C03
:1086A00018BFC94302980FBF106001F01F0100FA04
:1086B00001F111600021196010684300C00F1360C0
:1086C00005B0F0BDB4B00250E4B00250DCB00250CE
:1086D00030B51E4B85B01A46196800910099CC0739
:1086E000FAD500F1A05000F52C4080000168136815
:1086F0000193019BD807FAD5154B164C1868164DF7
:108700001F30202390FBF3F00138002810DA0023FB
:108710000130400153B1A0F120014FF0004213425B
:1087200004D1013888424FEA5202F8D105B030BD79
:1087300013680393039BDB07FAD5431823602B6868
:108740000293029B002BE3D10138DEE7B4B0025064
:10875000ACB00250E4B00250DCB002500A46002136
:10876000AFF3008038B5A0F12003B3F5426F0546A2
:108770002CD88F2826D800F1470300F16604DB06C9
:108780004FEA541400D0013464013F34A409013489
:1087900011B1A1421AD30C46E3004FF48050B0FB54
:1087A000F3F0202828BF202002B11060084B0122DE
:1087B0001A60214600F068F82846214600F088F843
:1087C000002038BD00F11F046409DDE70148F8E727
:1087D0001CB802502221F00070B5264888B005462A
:1087E00004680094009CE607FAD52348234C0460F3
:1087F000234C44EA83432C680194019CE407FAD596
:108800000360930143EA824242F0104444F4C044BE
:108810002B680293029BDE07FAD504602B68039352
:10882000039BDB07FAD5174B03608B0143EA8141B9
:1088300041F0104343F4C0432E680496049EF607AB
:10884000FAD503602B680593059BDE07FAD5046013
:1088500041F058412B680693069BDC07FAD501606E
:1088600042F058422B680793079BDB07FAD502605A
:1088700008B070BDB0B0025080B00250C0210229D3
:108880008071009880611890002230B5490013462D
:10889000023840F6FC7502F1A05404F52C44A40003
:1088A000904202F10102CABF236025605B181E2AB4
:1088B000F1D1044A13600B445360034B034A1A601E
:1088C00030BD00BF78B0025084B0025020F80F00D5
:1088D0000C4B18603F3020F03F0089014030586059
:1088E0009960D9601961596199611C330648196012
:1088F00082B002680192019AD207FAD5196002B0DB
:10890000704700BF90B00250B4B002502DE9F04162
:10891000012392B0CDE90333624B1D461A680592DC
:10892000059AD207FAD5604C604B2360604B19461C
:108930001A680692069AD707FAD55E4B1A68D604CB
:1089400000F1A8802A680792079AD007FAD55A4AF8
:1089500022600A680892089AD207FAD51E68C6F300
:108960000036002E40F098801220FFF7B1FE074637
:108970001320FFF7ADFE87428CBF12201320FFF7B4
:10898000A7FE471EFFF73CF903AB01AA39461220A8
:10899000FFF764FE04AB804602AA39461320FFF7B6
:1089A0005DFE00EB4800022832D003283ED00128AB
:1089B00074D12B680993099BDB07FAD53F4B2360E1
:1089C0002B680A930A9BD807FAD53D4B23602B6886
:1089D0000F930F9BD907FAD53A4B23602B6810935E
:1089E000109BDA07FAD5384B23602B681193119B43
:1089F000DB07FAD5354B2360013F25D5102319221B
:108A000018210020FFF7E8FE304612B0BDE8F081E3
:108A10002B680B930B9BD907FAD52D4B23602B6842
:108A20000C930C9BDA07FAD52A4BCFE72B680D93F2
:108A30000D9BDB07FAD5284B23602B680E930E9B0A
:108A4000D807FAD5254BC1E703AB01AA3946122056
:108A5000FFF704FE04AB044602AA39461320FFF7D1
:108A6000FDFD10EB440402D1FFF7CEFBC4E7FFF796
:108A70000FFB022C08D0032C09D0012C10D1172198
:108A80001620FFF747F9B7E715211420F9E70F2162
:108A90000E20F6E7124EB7E7124EB5E7124EB3E7D7
:108AA000124EB1E7B0B0025080B0025000084A51F7
:108AB000B4B0025088B0025000084E5100065A4926
:108AC00040065E49000442410014424940042E49D8
:108AD000000652494006564900063A4940063E49BA
:108AE0000608F1000708F1000408F1000508F1008C
:108AF000014B1860704700BF08BA0250014B186064
:108B0000704700BF04BA0250094BC2431A60043BCD
:108B100082B01B680193074B019A024204D0064AB7
:108B20001060186802B0704720BF1A680192F3E71E
:108B300004BA02504C44022008BA0250FEF7B8BDF5
:108B4000FEF7E0BD0A460021FEF7DCBD2DE9F74344
:108B500005460E469946114600F060FA0446002884
:108B600040F08480002E00F08580002900F0848091
:108B7000B9F1200F40F0828005F14404082205F18C
:108B800004082046FFF72EF805F124070822314695
:108B90004046FFF727F806F1200108223846FFF784
:108BA00021F802A94FF4807041F8049DFFF7D6FD2B
:108BB000002865D1334A4FF480731360012193601C
:108BC0000823314AFFF708FA0121084605232F4AF6
:108BD000FFF702FA0823424601211C20FFF7FCF9A7
:108BE00008233A4601210320FFF7F6F9224608231D
:108BF00001210220FFF7F0F90823254A01211A205C
:108C0000FFF7EAF90523234A01211B20FFF7E4F9C6
:108C10000823214A01211420FFF7DEF908231F4A07
:108C200001211520FFF7D8F9082305F1640201217D
:108C30001620FFF7D1F9082305F18402012117203E
:108C4000FFF7CAF90823164A01210B20FFF7C4F9E0
:108C5000FFF7B0FB04460198FFF7EEFC114B002C28
:108C600018BF1C46A4212846FFF76CFF204603B01E
:108C7000BDE8F0830C4CF9E70C4CF7E70C4CF5E73A
:108C8000084CEFE790B0025054A30600CCA30600B6
:108C900014A30600B8A3060078A3060098A3060054
:108CA00034A306008408F0007608F0008008F00085
:108CB0008108F00038B50D460446B0B1A02200216D
:108CC0000430FFF73DFF95B10822294604F1640006
:108CD000FEF788FF082205F1200104F18400FEF769
:108CE00081FF044B2360002038BD0348FCE70348A4
:108CF000FAE700BFDD55AABB7108F0008308F00059
:108D00002DE9F041069F044615461E46FFF7D2FFA7
:108D100038B93B46324629462046BDE8F041FFF7C8
:108D200015BFBDE8F08100002DE9FF41144B04465A
:108D30000E460FCB6F4687E80F00204600F07EF905
:108D40008046B0B9CEB1636A251D01953BB90123B8
:108D50006362226F04F13001384600F087F82B4639
:108D6000043E243453F8042B12BAA34246F8042FCD
:108D7000F8D1404604B0BDE8F081DFF80880F8E79C
:108D8000E4A206000502F00038B5044668B1051DEE
:108D900070212846FFF7D6FE284620220449FFF717
:108DA000CDFE044B2360002038BD0348FCE700BF24
:108DB000F4A20600DD55AABB0002F0002DE9F04345
:108DC000284B04460E4615460FCB85B06F4687E804
:108DD0000F002DB94FF00009484605B0BDE8F083FB
:108DE000204600F02BF981460028F5D1231D019380
:108DF000636AA3BB236F8BB1C3F14008A84528BFAA
:108E0000A84604F13000314618444246FFF796FE6A
:108E1000236F434446442367A5EB0805226F402A8D
:108E200006D104F13001384600F020F80023236712
:108E300005F03F0835F03F0505D031462A46384653
:108E400000F014F82E44B8F1000FC3D0424631466A
:108E500004F13000FFF772FEC4F87080BCE7DFF861
:108E60000890B9E7E4A206000C02F0002DE9F74FE4
:108E7000314B44688046924699461A68002AFCD1D4
:108E80002E4B9B461A68002AFCD14FF0FF3001910F
:108E9000FFF72EFE8020FFF731FE294D294A2A4F89
:108EA0002A4E012307202B60A2F59E72C2F83C01D6
:108EB0001360636A3B60A36A3360D8F8003042F8FD
:108EC000043CD8F80830204698470199D9F800307A
:108ED000002BFBD1BAF1000F20D11D4B04221A60E8
:108EE000D9F80030002BFBD1DBF800A0BAF1000F5D
:108EF000FAD1D8F80C30204698473B686362336853
:108F0000A362144BC3F800A0C3F844A1D9F8003001
:108F1000002BFBD12B6003B0BDE8F08F236A012B3F
:108F200004BF0C4A13600C4B40201960C3F804A026
:108F3000FFF7EAFDD4E700BF10B9025020BC025091
:108F400018B8025000B90250CCB70250D0B7025046
:108F5000C8B7025084B6025028BC0250084B1B68A8
:108F60001B0EF02B08D1074B1A68074B9A4205D10C
:108F7000064B002018607047052070470620704798
:108F800028B9025024BA02500000E0200CBA025066
:108F90000C4B1B68C3610C4B1B6883610B4B1B683C
:108FA00043610B4B1B6803610A4B1B68C3600A4B90
:108FB0001B688360094B1B684360094B1B68036097
:108FC000704700BF5CB6025058B6025054B602500B
:108FD00050B602504CB6025048B6025044B6025049
:108FE00040B602500C4BC2691A60826943F8042CE7
:108FF000426943F8082C026943F80C2CC26843F814
:10900000102C826843F8142C426843F8182C02682C
:1090100043F81C2C704700BF5CB6025030B10268A8
:10902000034B04489A4208BF00207047024870472B
:10903000DD55AABB8208F0007108F00030B102686B
:10904000034B04489A4208BF00207047024870470B
:10905000DD55AABB0202F0000002F000810705D135
:109060006421B0FBF1F201FB120141B94FF4C87168
:10907000B0FBF1F201FB120008B1002070470120A3
:109080007047000030B5A3B000240125209420A82B
:10909000219406F079FC1A941B941C941AA81D9430
:1090A00006F06AFC04940594069404A8079406F05C
:1090B00071FC0094019402946846039406F04CFC01
:1090C000189418A8199406F04FFC022222A91948F6
:1090D000229407F0D1FEBDF88800402144BA08A8C8
:1090E000FEF70EFBDDE920010DF1680CCDE908016A
:1090F0009CE80F000DF1280C8CE80F000DF1100C0E
:109100009CE80F000DF1380C8CE80F009DE80F0073
:109110000DF1480C8CE80F00DDE91801CDE91601CE
:10912000402108A800F03AFF844200D0002523B077
:10913000284630BD40C00E0030B50C4CD4E9025278
:10914000AB1A954200D2643343B1094B33F8123065
:109150000B80511C642903D3002202E0002030BDA3
:10916000521C0121E2600160084630BDC831002078
:10917000F2E2012070B558B1642809D841B10F4C12
:10918000D4E90225531BAA4200D26433642B01D3D5
:10919000002070BD00230A4D0BE000BF31F81360C2
:1091A00025F81260561C642E01D3002200E0521CE8
:1091B0005B1C8342F2D30120A26070BDC831002045
:1091C000F2E2012070B50F4CD4E90A52AB1A954275
:1091D00000D2A0339BB1082B11D30B4D0023AE5C02
:1091E000CE54561CA02E01D3002200E0521C5B1C62
:1091F000082BF4D30821E2620160012070BD002039
:1092000070BD0000C8310020BAE3012070B558B12C
:10921000A02809D841B10E4CD4E90A25531BAA4213
:1092200000D2A033A02B01D3002070BD0023094D34
:1092300008E0CE5CAE54561CA02E01D3002200E004
:10924000521C5B1C8342F4D30120A26270BD00005B
:10925000C8310020BAE301202DE9F0470D0023D0EA
:109260004FF46162B0FBF2F1B0FBF2F302FB1300CA
:109270003C22B0FBF2F3B0FBF2F802FB130A182019
:10928000B1FBF0F2B1FBF0F300FB12194FF4FA66F8
:109290004FF4B7745B1CA342B0B20CDBFFF7DEFEE9
:1092A00028B1A3F5B77304E00020BDE8F087A3F26E
:1092B0006D13761CEFE7FFF7D1FE08B11D2000E02B
:1092C0001C2010490127887000200A181C4652787B
:1092D0009B1A002B04DD401CC0B27F1C0C28F4D369
:1092E000E2B2F9B2B0B200F029F82872AE80AF71E4
:1092F000EC7185F8009085F8018085F802A00120C6
:10930000D3E7000054310020022802D00A49085C4B
:10931000704788070CD16420B1FBF0F200FB1210FB
:1093200040B94FF4C870B1FBF0F200FB121008B165
:109330001C2070471D2070475431002030B5642434
:10934000B0FBF4F3DBB2032908D2B0FBF4F50C3127
:1093500004FB1500401EC9B2C0B203E0B0FBF4F537
:1093600004FB15001A24491C11FB04F10A24B1FB6B
:10937000F4F100EB900000EB93005B4200EB430044
:1093800008441044401EC0B20721B0FBF1F201FBBB
:109390001200C01DB0FBF1F201FB120030BD000055
:1093A00070B5A2B0002405461F941FA8209406F0B3
:1093B000EBFA1B941C941D941BA81E9406F0DCFA77
:1093C00007940894099407A80A9406F0E3FA029413
:1093D0000394049402A8059406F0BEFA009468462B
:1093E000019406F0C1FA022221A91B48219407F03A
:1093F00043FDBDF88400402146BA0BA8FEF780F972
:10940000DDE91F010DF16C0CCDE90B019CE80F00AB
:109410000DF1340C8CE80F000DF11C0C9CE80F00D2
:109420000DF1440C8CE80F000DF1080C9CE80F00C6
:109430000DF1540C8CE80F00DDE90001CDE91901B4
:1094400040210BA800F0AAFD864203D0012028701D
:1094500022B070BD2C70FBE740C00E002DE9F04338
:109460009FB020216846FEF74BF90BF025FD06F072
:10947000F9F89A4E4FF0020900254FF00108FF223B
:10948000502108A8FEF735F908AF00248DF8705078
:1094900005E000BF9DF870003855641CE4B21CA8BC
:1094A00007F06CFA0028F5D0042CF8D37878801CEB
:1094B000A042F4D1214608A800F046F9002871D056
:1094C000F17800296FD01028D9D00BDC0E28D6D225
:1094D000DFE800F08188989EA83307410747074FCF
:1094E0000757CCE7272872D012DC1E2870D020281E
:1094F0006FD025286ED02628C1D1684606F034FAF0
:10950000082168460BF010FDA5216A460A20C8E034
:10951000282874D02E2873D02F2872D03028AED1AE
:109520001CA86DDFDDF871000090BDF87500ADF886
:1095300004003E216A460820B3E000200BF0A0FCA6
:109540008DF8008012E0032000F0D8F92021684651
:10955000FEF7D6F893E700200BF08AFC8DF8008028
:109560000CE000200BF08CFC8DF800906A46122174
:10957000E9E700200BF07CFC8DF800906A4614218E
:10958000E1E75748D0F810052A23C0F3802422468B
:1095900054A1002002F0D0FE6FF4806040EA8424E1
:1095A000224601E017E096E059A1002002F0C4FE37
:1095B0008DF80040200A8DF80100200C8DF8020083
:1095C000200E8DF8030017216A460620BCE74CE008
:1095D0002DE034E03EE086F803808DF800506A46C6
:1095E0000221B0E7BFF34F8F50480168504A01F4A1
:1095F000E06111430160BFF34F8F00BFFDE73AE028
:1096000052E05DE00C208DF800006A4607219AE7E1
:10961000307820B18DF800006A46092193E78DF873
:109620000080F9E78DF800506A4605218BE741A3D9
:109630000FCB8DE80F0089216A46122084E7684627
:1096400006F0A2F9082168460BF06EFC0B216A4671
:109650000A2079E7684606F08FF9102168460BF07A
:1096600063FCA3216A4612201BE06846FFF798FEC0
:109670006A46A72114E09DF8210044287FF431AF09
:10968000FF208DF8650042210DF1230006F022F93C
:1096900010B18DF8005001E08DF800806A468B21F2
:1096A000032000F02BF9EAE61FF0B8FF8DF8000068
:1096B0001FF0B4FF000A8DF801006A46952108E00A
:1096C00003F04EF88DF80000000A8DF801006A469C
:1096D0007F210420E5E71FB0BDE8F0837C31002046
:1096E0000003005075333244494F53746174653D33
:1096F0003078253038782020204750494F5F4B453F
:10970000595F4952515F50494E3D253038780A0023
:1097100061667465722075333244494F53746174C5
:10972000653D3078253038780A0000000CED00E007
:109730000400FA056C756D692E6C756E61722E6190
:10974000636E30310000000070B5042952D30278F6
:10975000FE2A4FD14278931C8B424BD10144441CCA
:1097600011F8015C0023194604E0665C491C33448F
:10977000DBB2C9B29142F8D3AB423BD18178112917
:1097800039D0132949D0012959D0162959D018297F
:1097900059D0594A212958D006295CD008295CD0D3
:1097A0000C295CD004295CD00E295ED01A295ED029
:1097B0001C2966D0472978D0452978D0882978D0C7
:1097C0000A2978D04D297FD04B297FD091297FD08D
:1097D000A0297FD0A2297FD0A4297FD0A6297FD01D
:1097E00033297FD08A297FD094297FD07E297FD0CA
:1097F0003D297FD04AE0C078012806D0022806D053
:10980000032806D0042806D040E0052070BD0920BA
:1098100070BD062070BD0A2070BDC078012806D03A
:10982000022806D0032806D0042806D02EE0072000
:1098300070BD0B2070BD082070BD0C2070BD0020D5
:1098400070BD0D2070BD0E2070BD01795170C078C3
:109850009070102070BD022070BD032070BD2920C3
:1098600070BDC0781070042070BD192070BDC07824
:10987000012802D0022802D008E01A2070BD1B2067
:1098800070BDC078012803D0022803D01F2070BD0E
:109890001C2070BD1D2070BD07E008E009E00AE053
:1098A00012E013E014E015E016E01620F3E71720AD
:1098B000F1E71E20EFE72020EDE70FE010E011E0D8
:1098C00012E013E014E015E02120E4E72220E2E7B3
:1098D0002320E0E72420DEE72520DCE72620DAE766
:1098E0002720D8E72A20D6E72820D4E72E20D2E761
:1098F0002F20D0E73020CEE77C3100202DE9F04149
:1099000004460F46E11900208AB09046CEB2A51E4B
:1099100006E000BF18F80010401C3144CEB2C0B2BF
:10992000A842F7DB28216846FDF7EAFEA01CC1B279
:10993000FE208DF800008DF801408DF802700020A7
:109940006A4605E018F800301418401CE370C0B2F5
:10995000A842F7DB501800F8016C104607F096FBA0
:109960000AB0BDE8F08100000148006870470000BF
:1099700050310020024908600249FFF76DBC000029
:10998000503100205C5D01201C4810B501681C4C62
:10999000491C0160A078401CC0B2A0703C282BD3A9
:1099A0000020A0706178491CC9B261703C291DD3A8
:1099B00060702178491CC9B22170182916D3207013
:1099C000A188A079FFF7A0FCE179491CC9B2E17137
:1099D00081420BD90120E071A179491CC9B2A17162
:1099E0000C2903D9A071A088401CA080E279A1793C
:1099F000A088FFF7A3FC207210BD000050310020AA
:109A00005C5D01200148007970470000683100204A
:109A10000549024603464870044981F8F60004A14E
:109A2000002002F089BC000068310020685B012042
:109A300075385265616C54696D6544617461466C3A
:109A40006167203D2025642C20753856616C203DCF
:109A50002025640A000000000149087170470000D9
:109A600068310020074910B50B6800243BB130B1C4
:109A70000146621E184621F00FFE00B10124204667
:109A800010BD00006431002031B50A480024006890
:109A900048B19DF8001031B100230A22694621F037
:109AA00035FD10B10124204638BD03A1002002F08D
:109AB00043FCF8E7643100207175657565206973B2
:109AC0002066756C6C2C646174612063616E206E1D
:109AD0006F742073656E640A0000000004490A7800
:109AE000824201D1002070474A70087001207047FF
:109AF000D22E0020014901200870704768310020F3
:109B00000148007870470000D22E00202DE9F04374
:109B100087B0814626F0FBFC06003DD026F08AFD8A
:109B2000182100F8011B044633F0C2FE05784FF4FB
:109B30009178691C017025700A20607001224FF62F
:109B4000C04743463946104633F091FD0188618095
:109B50008078207104F8059F0020ADF814001048AB
:109B60002146641C20F8027B20F8028B80F84950C3
:109B7000012580F848502A46FDF79AFD4FF482717E
:109B8000CDE9015107480095CDE90370022305AAEC
:109B90002146304633F000FD07B0BDE8F0830000F9
:109BA000185B0120AD5706000178D0F8010041EAAA
:109BB00000210C48416300F1340142780968B2EB9E
:109BC000517F0DD0490F4170074805D0012903D0BE
:109BD000022901D0032903D101700A20FFF754BFE5
:109BE00070470000C8310020B85D012070B51548ED
:109BF000154D0078012802D12868401C286006F025
:109C000003F938F0FFF800281AD0104C2068401CE7
:109C10002060B42002F096FA2168002600F59670C4
:109C2000884203D208202660FFF72EFF286845F2FD
:109C30006041884204D32E60BDE8704006F08ABFC0
:109C400070BD0000CD2E0020D82E0020E82A002074
:109C50002DE9F0411E4617460D46040024D01DB3E1
:109C600003F058FE24600020A4F8E80584F8EA0513
:109C7000A4F8EC05A4F8EE05C4F810560B48C4F897
:109C800014060B48C4F818060A48C4F81C06C4F8A1
:109C90002876C4F824660848C4F820061720A4F8DB
:109CA000F0050020BDE8F0810120FBE7B9D60200F5
:109CB00065D90200B1CD0200B5DE020003F02ABE74
:109CC000F0B597B005462E4C00264FF47F40ADF816
:109CD0005060ADF85400E069C0B1288848B1A0F5E3
:109CE0008060F9380CD00E2818D02E80032017B0D1
:109CF000F0BDE07850B10120A07040F2F94028801A
:109D00001F4824300168C90703D007E02E800220D5
:109D1000EDE70068800601D40020E8E7E169D1F8AA
:109D20003C291C3108469047022801D2012700E057
:109D30000027E069D0F84CC914AB02AA15A91C3061
:109D4000E047E069D0F850191C308847BDF8500052
:109D500068B19DF80810401ECDE9006182B24FF64F
:109D6000FF730DF10901BDF8540003F021FC002F31
:109D7000D4D0A67040F2075028800120B7E7000039
:109D80008435002002460B4810B5C06900280FD06A
:109D9000D0F840490B4600211C30A047054824302C
:109DA000016821F480710160BDE8104011F078BBBA
:109DB00010BD00008435002023A1002002F0BCFA71
:109DC0002AA1002002F0B8FAEFF308803049314CA4
:109DD000086002682260416861608168A160C168B2
:109DE000E16001692161416961618169A161C069C5
:109DF000E06129A1002002F09FFA2AA100206268F8
:109E000002F09AFA2AA10020A26802F095FA2BA18A
:109E10000020E26802F090FA2BA10020226902F0F3
:109E20008BFA2CA10020626902F086FA2CA1002096
:109E3000A26902F081FAE2692CA1002002F07CFA0A
:109E40002D4A2EA1F9E700000D0A202A2A2A2A20ED
:109E5000427573204661756C742048616E646C6550
:109E600072202A2A2A2A200D0A0000000D0A202A20
:109E70002A2A2A20537461636B20526567697374C0
:109E800065722044756D70202A2A2A2A200D0A0046
:109E900034320020E0EA012072303D253038580D80
:109EA0000A00000072313D253038580D0A000000CC
:109EB00072323D253038580D0A00000072333D25BE
:109EC0003038580D0A0000007231323D25303858C4
:109ED0000D0A00006C723D253038580D0A00000054
:109EE00070633D253038580D0A0000007073723DD4
:109EF000253038580D0A0000996606002573282978
:109F00002D3E72756E20686572650D0A00000000B6
:109F100038B503208DF80000802500248DF801500D
:109F200002468DF802402346694648200FF09EFF06
:109F300008B105F0C4FC02208DF800008DF8014046
:109F40008DF8024000230322694648200FF08EFF5F
:109F500008B105F0B4FC04208DF800008DF8014034
:109F60008DF8024000230322694648200FF07EFF4F
:109F700008B105F0A4FC01208DF8000084208DF8C4
:109F800001008DF8025000230322694648200FF09B
:109F90006DFF002801D005F092FC38BDFCB50646E7
:109FA0004FF6FF7400200D46ADF8004041F2210746
:109FB0008DF8040020E000BF16F8010B8DF80400B6
:109FC00001A9084601F0B8FFBDF800009DF8041093
:109FD00080EA0120ADF800005FF00000BDF800103D
:109FE0000A0402D587EA410101E004EA4101401C6C
:109FF000ADF800100828F1DB6D1EDDD26946084679
:10A0000001F084FFBDF800006040FCBD002800DACC
:10A010004042C0B2704770B504462DED028B0D462C
:10A02000401EF0EE608AB0EE408A41F1FF31FDF74C
:10A030007FFC00EE100A2046294640EE088AFDF714
:10A0400077FC00EE900A88EEA00ABDEC028B70BD92
:10A0500010B5002211464FF41673445C491C22448B
:10A0600089B292B29942F8D300EE102A9FED0E1AEF
:10A070000E4BF8EE400A197980EE810AF6EE000ADE
:10A0800030EE200ABCEEC00A10EE100AC0B2421A2E
:10A09000052A01DD891C03E012F1050F01DA891E92
:10A0A000C8B2187110BD00000000164480310020B5
:10A0B00010EE101A0020B1F17E5F04DC10EE101AD1
:10A0C00011F1814F01D90520704710EE101A174A7F
:10A0D000914204DC10EE101A154A914201D9042075
:10A0E000704710EE101A134A914204DC10EE101A59
:10A0F000114A914201D90320704710EE101A0F4AFD
:10A10000914204DC10EE101A0D4A914201D902204E
:10A11000704710EE101A0B4A914204DC10EE101A30
:10A12000094A9142F4D9012070470000CDCC4C3F40
:10A13000CDCC4CBF9A99193F9A9919BFCDCCCC3E42
:10A14000CDCCCCBECDCC4C3ECDCC4CBEF8B5002554
:10A150000095017801242B462A464FF41677865C39
:10A160008E4200D93146521C92B2BA42F7D371B135
:10A170000022855C8D4217D1521C92B2BA420CD299
:10A18000865CAE4208D104F10104A4B2F4E78DF874
:10A1900000508DF8015014E0EED2012C01D95B1C67
:10A1A000DBB2521E92B20124521C92B2BA42E0D3E8
:10A1B00001B14BB10F2B00D90F238DF800108DF892
:10A1C0000130BDF80000F8BD0021F6E72DE9F041AF
:10A1D00080462DED028BACB074216846FDF790FAF5
:10A1E0003C211DA8FDF78CFA29AE1DAFDFED5D8A7D
:10A1F00000241923694608F1140017AA0EF0C6FAC4
:10A200009FED590A684601F0ADFE18B300206D4677
:10A2100005EB800191ED000AB5EEC00AF1EE10FAEF
:10A2200008D02918401C11F85C2FC0B2521D0A70CA
:10A230001728EDD31721284611F0ECFE28446A4672
:10A2400090F85B00B0EE688A08EB8001D1ED000A5F
:10A2500000210AE012202CB0BDEC028BBDE8F08199
:10A26000491C30EE088AC9B2121D92ED000AB5EE03
:10A27000C00AF1EE10FAF3D100EE101A5FF00001FF
:10A28000B8EE401A88EE010A05EB810292ED001A41
:10A29000B5EEC01AF1EE10FA11D0B4EEC01AF1EE1C
:10A2A00010FA08DD6B1893F85C3006F8013B92ED6C
:10A2B000001AA7EC011A491CC9B21729E4D31DA939
:10A2C0009FED2A0A14281CD320EE800A002200BF2A
:10A2D00001EB8203D3ED000AF4EEC00AF1EE10FAAE
:10A2E0000ADD8B1893F830300A2B05D9834203D24C
:10A2F000881890F830002CE0521CD2B20C2AE7D318
:10A3000027E00A2825D860EE800A002201EB8203AC
:10A3100093ED000AB5EEC00AF1EE10FA17D0B4EED4
:10A32000E00AF1EE10FA0EDD8B1893F830300A2BAC
:10A3300009D9142B07D2B4EEE80AF1EE10FA02DDC7
:10A34000F0EE408A1C46521CD2B20C2ADED304B175
:10A350002046062801D206207DE71E28FCD91E20B3
:10A3600079E700000000000077CC2B32CDCC4C3FC9
:10A370000FB42DED020B70B506462DED0A8B0DF5D1
:10A38000806011AD0DF5816470EE608A70EEC0AA38
:10A3900090EDF41AD0EDF31A90EDF5AAB8EE419ACB
:10A3A000F8EE619A9FED1B8ADFED1BBAB7EE00CA8B
:10A3B0001DE000BF68EE290A80EE890A20EE2BBA64
:10A3C000B0EE4B0AFDF75EF8D5ED000A48EE800AC4
:10A3D000B0EE4B0AC5ED000AFDF790F8D4ED000A87
:10A3E00038EE0C8A2D1D4AEE800AE4EC010AB8EE24
:10A3F0004A0AB4EEC08AF1EE10FADBD34FF4F162F0
:10A4000011A93046FDF754F9BDEC0A8B70BC5DF81C
:10A410001CFB000000000000DB0FC9400FB42DED55
:10A42000020B70B506462DED088B0DF58060F0EE41
:10A43000408A0FAD044690EDF20AD0EDF10AD0ED5E
:10A44000F3AAB8EE409AF8EE609A9FED1B8A9FED52
:10A450001BBAF7EE00BA1CE068EE290A80EE890A02
:10A4600020EE0BAAB0EE4A0AFDF70CF8D5ED000A73
:10A4700048EE800AB0EE4A0AC5ED000AFDF73EF844
:10A48000D4ED000A38EE2B8A2D1D48EEC00AE4EC0C
:10A49000010AB8EE6A0AB4EEC08AF1EE10FADBD314
:10A4A0004FF4F1620FA93046FDF702F9BDEC088BBD
:10A4B00070BC5DF81CFB000000000000DB0FC94011
:10A4C0002DE9F04705462DED028BADF5087DD42131
:10A4D00001A8FDF715F970215CA8FDF711F93C21E1
:10A4E00078A8FDF70DF9982136A8FDF709F984AA97
:10A4F0001623174678A905F5C6700EF047F92BAA62
:10A500005223164601A905F5EE700EF03FF972AA26
:10A510002A2392465CA905F547700EF037F91421FD
:10A5200078A811F077FD78A90844502190F82F0001
:10A53000633000F0FF0901A811F06CFD01A9084487
:10A54000282190F8A700773000F0FF085CA811F0F0
:10A5500061FD5CA9084490F85700C730C4B205EB10
:10A56000890090ED008A05EB880090ED000A05EB6C
:10A570008400D0ED008AB4EEC08AF1EE10FA1DDD41
:10A58000B4EEE88AF1EE10FA18DDDFED560A68EE57
:10A59000A00AF4EEC80AF1EE10FA05DDB4EEE80AFE
:10A5A000F1EE10FA16DA16E0DFED4F0A68EE200A37
:10A5B000F4EEC00AF1EE10FA0CD309E0B4EEE80AAA
:10A5C000F1EE10FA06DAB4EEC08AF1EE10FA01DB11
:10A5D0004C4600E04446012000902A23324601A95F
:10A5E000284601F0CDF80646B0EE480A0A233A465E
:10A5F00078A9284601F04CFA074648469FED3B8A69
:10A60000DFF8EC90844203D106B17FB33C462EE0E4
:10A6100044452BD000200090B0EE680A1623524625
:10A620005CA9284601F0ACF888B176B105EB800151
:10A63000D1ED000A05EB860191ED000A20EE081A23
:10A64000F4EEC10AF1EE10FA07DD04460FE06FB137
:10A65000002EDBD099F8004009E005EB8700D0ED33
:10A66000000AF4EEC00AF1EE10FACFDC344699F895
:10A670000100A4F10A014E46814202DC14318142FC
:10A6800020D22F2354AA36A905F1D8000EF07EF867
:10A690001E2136A811F0BEFC36A9084490F87700B8
:10A6A0003630C1B2707800F10A028A4204D3143AFB
:10A6B0008A4201DC0C4605E0844201D9C01C00E05E
:10A6C000C01EC4B2372C01D2372402E0782C00D946
:10A6D000782474700DF5087D2046BDEC028BBDE832
:10A6E000F08700006666A63FCDCC4C3F9A99993F13
:10A6F0008031002070B505462DED088B0C461E46B6
:10A7000041F27071B7EE00BA0C98DFED1F8AB0FB12
:10A71000F1F301FB130000EE100A9FED1C9ADFED30
:10A720001CAAF8EE409A00EE102AB8EE408A1AE011
:10A7300068EE290A80EE890A20EE2AAAB0EE4A0ABB
:10A74000FCF7A0FED5ED000A60EE20BAB0EE4A0A92
:10A75000FCF7D4FEF4EC010A38EE0B8A2D1D40EE16
:10A76000C0BA7BEEA88A00EE106AB8EE400AB4EEDA
:10A77000C08AF1EE10FADBD99FED060A28EE800AB6
:10A78000BDEC088B70BD0000000000000080BB45E0
:10A79000DB0FC940FB8808392DE9F04F91462DEDBC
:10A7A000068BADF62C7D8A46064600249FEDFE9A68
:10A7B00041F271722346FD4DD5E90A01FCF7E0FE36
:10A7C000DFF8EC83304628F8126000F0E1FDB0EECF
:10A7D000408A4FF47A730022B7EE08AADFEDF5AA9B
:10A7E000D5E90A01F44DF64F05F57776CDF8906777
:10A7F00005F11806CDF88C6705F28C46CDF8986700
:10A8000005F1C806CDF894670C35EC4ECDF89C6781
:10A810001B1ACDF8885705F534668A417DD3E34D80
:10A8200080F001020A4334D0F0EE480A95ED030AA5
:10A83000FFF7F1FB78EE408A85ED030AB0EE680A77
:10A84000FFF736FC214660F317418B46D5E90A0134
:10A850008046401E41F1FF3147F230520023FCF7A1
:10A860008FFE104641F27072821A73F100020AD212
:10A87000D5ED050AB0EEE80AB4EEE00AF1EE10FA02
:10A8800001DD85ED050A41F270714840184303D09F
:10A890000AE0B0EE480ACDE7BAF1010F7DD0C5ED70
:10A8A00004AA00BF85ED059A2889C82876D000281B
:10A8B00075D0401C2881A878012871D0B0EE680AB4
:10A8C00000F05AFDA96AB0EE680A27F8110000F0FE
:10A8D00053FDA96A26F81100D5E90A0141F2717207
:10A8E0000023FCF74DFE37F9120000F051FDA86A75
:10A8F0000DF27C73401E41F2707280B205C3F121EB
:10A9000040F27C7ACDF88417B0EE408A5246684611
:10A91000DDF88817FCF7CCFE00E08FE0A648B0EE2B
:10A92000480A90E80E000DF5F460FFF777FD4FF44C
:10A93000F16842460DF5F4619F48FCF7B9FEA86A3C
:10A940004FF01C03401E80B200900DF28C704FF04F
:10A95000060203C8FFF7CEFE89ED000AA86A4FF091
:10A96000F003401E80B200900DF294704FF032025E
:10A9700003C8FFF7BFFE12205F4660F30F27482091
:10A9800089ED010A60F307076870D5E90A0140F212
:10A99000E9320023FCF7F4FD03E02BE035E036E07C
:10A9A00047E036F9120000F0F3FCA86A0DF27C7360
:10A9B000401E4FF47A7280B205C32921CDF8841766
:10A9C000B0EE408A52466846DDF89C17FCF770FEF0
:10A9D0007A48B0EE480A0C3890E80E000DF5F460A5
:10A9E000FFF71CFD754842460DF5F4610C38FCF785
:10A9F0005FFEA8E295ED050AF0EE6A0A20EE0A0A6B
:10AA000002F07EFB85ED040A4CE72C81AC7095EDDD
:10AA1000040AF4EEC08AF1EE10FA07DCB1EE400A47
:10AA2000F4EEC08AF1EE10FABFF445AF0120A87031
:10AA3000288127F8184026F818404DE741F2717236
:10AA4000821A5A4D71F100027ED2F0EE480A95ED5D
:10AA5000030AFFF7E0FAF0EE409AC5ED039A78EEAC
:10AA6000698AB0EE680AFFF723FB214660F31741BD
:10AA70008B46D5E90A0180460091401E41F1FF3125
:10AA800047F230520023FCF77BFD104641F2707212
:10AA9000821A73F100020AD2D5ED050AB0EEE80A77
:10AAA000B4EEE00AF1EE10FA01DD85ED050A02468A
:10AAB00041F2707042401A4308D1BAF1010F54D0EC
:10AAC000C5ED04AAB0EE490A85ED050A2889AA4613
:10AAD000C82855D0C8B3401CAAF808009AF802004C
:10AAE000012874D0B0EE680A00F046FCDAF82810AD
:10AAF000B0EE680A27F8110000F03EFC0546DAE9DE
:10AB00000A0140F2E9320023FCF73AFD26F8125020
:10AB1000554641F27172D5E90A010023FCF730FD78
:10AB200037F9120000F034FCA86AF121401E0DF242
:10AB30007C7341F2707280B205C3B0EE408ACDF8EA
:10AB4000841740F27C7201E04DE01DE06846DDF8BC
:10AB50008817FCF7ADFD1848B0EE480A90E80E00E3
:10AB60000DF5F460FFF75AFCFDE095ED050AF0EEF7
:10AB70006A0A20EE0A0A02F0C3FA85ED040AA1E788
:10AB8000AAF808408AF802409AED040A5046F4EE0A
:10AB9000C08AF1EE10FA06DCB1EE400AF4EEC08A8B
:10ABA000F1EE10FA9AD20EE0000000008031002091
:10ABB000D4600120CDCC4C3E98BE0120C4D10120F0
:10ABC000B68F012003E001218170AAF8081027F850
:10ABD000184040F2E932002340460099FCF7D0FCCF
:10ABE00026F8124094E7401CD5ED038A41F100019C
:10ABF00041F271720023FCF7C3FC38F9120000F037
:10AC0000C7FB78EE400A9FEDDB1A80EE810A70EEFA
:10AC1000289AC5ED039A78EE698AB0EE680AFFF7C4
:10AC200047FA214660F317418B46D5E90A01804671
:10AC30000091401E41F1FF3147F230520023FCF7F2
:10AC40009FFC104641F27075521B73F100020BD24B
:10AC5000C94AB0EEE80AD2ED050AB4EEE00AF1EE18
:10AC600010FA01DD82ED050A024641F27070C24D14
:10AC700042401A4308D1BAF1010F7DD0C5ED04AAB4
:10AC8000B0EE490A85ED050A2889AA46C82874D07D
:10AC9000002873D0401CAAF8080000BF9AF80200F0
:10ACA00001286CD0B0EE680A00F066FB0546DAE9D0
:10ACB0000A0141F271720023FCF762FC27F812507E
:10ACC000B0EE680A00F058FB0546DAE90A0140F2E6
:10ACD000E9320023FCF754FC26F81250A64941F251
:10ACE00070720023D1E90A0105468846401E41F1F1
:10ACF000FF31FCF745FC681C1FFA82FA41F27175BE
:10AD000048F100012A460023FCF73AFC37F912000B
:10AD100000F03EFB9849B0EE408A2A46D1E90A018C
:10AD20000023FCF72DFC37F9120000F031FBF12174
:10AD30006A1ECDF88027CDF88417B0EE40AACDF872
:10AD40007CA740F27C726846DDF88817FCF7B0FCFF
:10AD50008A48F0EE480AB0EE4A0A90E80E000DF577
:10AD6000F460FFF705FB4FF4F1620DF5F4618348E1
:10AD7000FCF79EFC804D03E0AFE0B9E0BCE0CFE023
:10AD8000DFF8F881C5ED039A002708F5F16A00BFE6
:10AD900008EB8700D0ED000A90EDF10A60EEA00A02
:10ADA00040EE000AB0EE600A02F0CEF90AEB87002E
:10ADB0007F1CFFB280ED000AF12FE9D3A86A4FF0A3
:10ADC0001C03401E80B200900DF28C704FF0060202
:10ADD00003C8FFF78FFC89ED000AA86A4FF0F00363
:10ADE000401E80B200900DF294704FF0320203C802
:10ADF000FFF780FC89ED010A6148FFF7E7F95F463C
:10AE000060F30F275E48FFF75BFB60F30707D5E9A8
:10AE10000A0180468946401E4FF47A7B41F1FF319A
:10AE20005A460023FCF7ACFB18F101001FFA82FA26
:10AE300040F2E93849F1000142460023FCF7A0FB4B
:10AE400036F9120000F0A4FAD5E90A01B0EE408A02
:10AE500042460023FCF794FB36F9120000F098FA02
:10AE60002921CDF88417F0EE409A40F27C72CDF89B
:10AE700080B7CDF87CA76846DDF89C17FCF718FC76
:10AE80004048F0EE480AB0EE690A90E80E000DF571
:10AE9000F460FFF76DFA4FF4F1620DF5F461394893
:10AEA000FCF706FC374A012002EB8001401C91EDC3
:10AEB000000AD1EDF10AC0B220EE000A292800EE06
:10AEC000A00A39EE009AEFD319EE100A2E498842F3
:10AED00039DB012060F31F6737E095ED050AF0EEDE
:10AEE0006A0A20EE0A0A02F00BF985ED040AC7E6A9
:10AEF000AAF808408AF802409AED040A5046F4EE97
:10AF0000C08AF1EE10FA07DCB1EE400AF4EEC08A16
:10AF1000F1EE10FABFF4C2AE01218170AAF8081058
:10AF200041F27172002340460099FCF729FB27F893
:10AF3000124040F2E932002340460099FCF720FB22
:10AF400026F81240CAE664F31F67B0EE680AFFF7FE
:10AF5000AFF8094960F317473846D1E90A23521C74
:10AF600043F10003C1E90A230DF62C7DBDEC068BED
:10AF7000BDE8F08F0080BB458031002098BE0120E5
:10AF800020C60120B8D10120000020412DE9FF4F4B
:10AF9000002195B00C46DDF88CA002910391894602
:10AFA00088460E460D4618460491FFF7CFF8C1B209
:10AFB000000A8DF80A10EE4F059105298DF80B0057
:10AFC0003946D7E90C014FF00A024FF0000329D0AF
:10AFD000FCF7D6FA796A00208854DFF894B300228F
:10AFE0000A21DBF8240000F0D0FF129000224FF479
:10AFF0001671229800F0C9FF0746DBE90C010A220E
:10B000000023FCF7BDFADBF81C100D918F54DBE92F
:10B010000C20CDE90B021391CDE9090200270AF0BB
:10B02000FF0B1EE0FCF7ACFA786A05218154D4E7E7
:10B03000DDE909100A220023FCF7A2FAD11B63F113
:10B0400000030A20081843F100010A220023FCF73C
:10B0500097FA13987F1CBFB2815C01EB090000F0E6
:10B06000FF09BB45E4D8DDE90B01CDE909010D98E5
:10B070001390CAF307200027069019E0DDE90910B4
:10B080000A220023FCF77CFAD11B63F100030A209B
:10B09000081843F100010A220023FCF771FA139803
:10B0A0007F1CBFB2815C01EB080000F0FF0806982E
:10B0B000B842E3D8DDE90B20AD49401C42F1000263
:10B0C000C1E90C0258464FF0010B484502D11298D5
:10B0D000012808D0B8F1000F2ED0A54840798DF88E
:10B0E0000C0060B301E08DF80CB04FF00009169A27
:10B0F0008DF80F90494648464FF41673175C401C74
:10B1000080B239449842F9D300EE101AF8EE400AA2
:10B110009FED981A964A80EE810AF6EE000AD178E1
:10B1200030EE200ABCEEC00A10EE100AC0B2431A7C
:10B13000052B10DDC91C12E000208DF80C0000204A
:10B140008DF80FB08DF808008DF80D008DF809000E
:10B150008DF80E0048E013F1050F01DAC91EC8B2E0
:10B16000D0708DF80800904617461798FEF770FFCC
:10B170008DF809009DF80C007979884207D98DF87F
:10B180000D900020C8F83800C8F83C0026E005986B
:10B1900047460528D7E90E014FF032024FF0000371
:10B1A00030D0FCF7EDF9B96901F80290424600236E
:10B1B000D2E90E01401C41F100013222C8E90E0122
:10B1C000FCF7DEF907461A4323D098F806008DF8FD
:10B1D0000D0000BF9DF80D00012803D098F806006F
:10B1E00001287DD08DF80E9061499DF80C204A71A0
:10B1F0009DF80D0088719DF80F10012971D0012A6A
:10B2000070D0A1E0FCF7BCF9B8699DF80B1081542F
:10B21000CCE7D8F818300020424600BF13F800C031
:10B22000401C644480B2A4B23228F7D3052C01D963
:10B23000002400E00124781E41F1FF3106220023A2
:10B24000FCF79EF9D8F8200006904FEA1A6784545C
:10B25000D8E90E210591CDE90A2000240C9208912D
:10B260001CE03222002308990A98FCF789F9401E55
:10B2700041F1FF3106220023FCF782F9101B63EB3A
:10B280000903801D43F1000106220023FCF778F931
:10B290000B98641CA4B2805C3044C6B2A742E0D8CC
:10B2A00005990C980A90069800240891CAF3074A59
:10B2B0000B9020E03222002308990A98FCF760F9ED
:10B2C000401E41F1FF3106220023FCF759F9101B03
:10B2D00063EB0903801D43F100010622002302E015
:10B2E00022E024E025E0FCF74BF90B98641CA4B2A3
:10B2F000805C2844C5B2A245DCD8B74202D18DF8A3
:10B300000DB004E06DB198F806008DF80D00D8F886
:10B310001820002049461154401C80B23228FAD32C
:10B3200058E78DF80D90F2E78DF80EB05CE700203D
:10B330000BE09DF80E1011B1012904D004E018B9FA
:10B340008DF810B003E080B103208DF8100015983F
:10B350000299016003994160BDF8101001819DF8C8
:10B360001210817219B0BDE8F08F0220EDE70000E5
:10B370008031002000001644DFED040A20EE200A90
:10B38000BDEEC00A10EE100A00B2704700401C4625
:10B3900010B5FCF7DBFA9FED051B53EC112BFCF706
:10B3A00058FAFCF703FB00EE100A10BD0000000085
:10B3B0000088C3402DE9F04116460F46054600249B
:10B3C0000DE025B13A5D0CA1002000F0B5FFA0060C
:10B3D00004D11CB115B10AA100F0AEFF641CB44247
:10B3E000EFD3002D05D0BDE8F04105A1002000F00D
:10B3F000A3BFBDE8F08100002530327820000000B6
:10B400000A000000704770B594B0054602A812907B
:10B410000E460AA81446134613900AAA02A93046FB
:10B420001AF0C6FF6188491C09B2CDE9001488B141
:10B43000002012A9002351F82020284604F14401DD
:10B4400000F011F82146284600F008F820B100204D
:10B4500014B070BD0120ECE70120F9E7097849003C
:10B4600049B21EF0C0BB2DE9FF4FB5B00AA8DDE917
:10B4700042841D4694F9007036993A462E901EF08B
:10B48000B1FD36983A4600EB87011AA88A4606466F
:10B490001EF0A8FDCDE9005412AB02AA31462E9849
:10B4A00001F04FFCA8F1020005B222E029463798CE
:10B4B0001EF0D3FD00287AD0002212AE02AB06EBBC
:10B4C000421B03EB4218C2F1010206EB421903EBE7
:10B4D00042165B46424649463046009401F0A5FBC1
:10B4E0004B46324659464046009401F039FB6D1EEA
:10B4F0002DB2002DDADC002137981EF0AEFD0028B9
:10B5000057D0002212A901EB421302AE06EB4218FB
:10B51000C2F1010201EB421506EB42169946424682
:10B5200029463046009401F080FB231D02AA0097B3
:10B5300022A82E991EF0AFFC22A92A4623460846CF
:10B540001EF095FC22A923460846369A1EF08FFC71
:10B5500022A93B46221D08461EF0F1FB22A95246B5
:10B56000234608461EF083FC22A93246234608469D
:10B570001EF07DFC3246494640462B46009401F0C1
:10B58000EFFA234622AA12A902A805F004FE3A46C1
:10B5900002A935981EF026FD35983A4600EB870043
:10B5A00012A91EF01FFD39B0BDE8F08FFFE70122A0
:10B5B00083E70122A6E7000000280BD00021064AFD
:10B5C00004E053181B7B4354491CC9B2D3698B4216
:10B5D000F7D8107F704700003C6001200248006AE5
:10B5E000002800D0012070473C600120002803D0D3
:10B5F0000249C96A01600120704700003C600120D7
:10B6000070B5002810D00022084B04E0845C9D181F
:10B61000521C2C73D2B28A42F8D30448D96100F08C
:10B6200075F8002800D0012070BD00003C600120AA
:10B63000084910B50A6A02B10122824201D10020F4
:10B6400010BD0862034800F061F80028F8D001201E
:10B6500010BD00003C600120074910B5CA6A824253
:10B6600001D1002010BDC862034800F04FF8002847
:10B67000F8D0012010BD00003C600120074910B542
:10B68000CA6C824201D1002010BDC864034800F09A
:10B690003DF80028F8D0012010BD00003C600120DA
:10B6A000074910B58A6C824201D1002010BD886420
:10B6B000034800F02BF80028F8D0012010BD00004E
:10B6C0003C600120074910B54A6C824201D100203C
:10B6D00010BD4864034800F019F80028F8D0012094
:10B6E00010BD00003C600120074910B50A6C824281
:10B6F00001D1002010BD0864034800F007F80028BD
:10B70000F8D0012010BD00003C600120F1B5009987
:10B71000C9B194230D4D6C464FF0FF320020265CDA
:10B72000401C5640F6B2984255F8266086EA12222E
:10B73000F5D3D043C1F8940098224FF46D200DF05A
:10B7400097F80120F8BD0020F8BD0000B4610600A4
:10B750000148008E80B270473C600120014890F89B
:10B760004C0070473C600120014890F8440070474D
:10B770003C6001200148006C704700003C600120E3
:10B780002DE9FF4F00252DED020B1E464FF06409F9
:10B790002DED068BADF50D7DB0EE409A34219FED79
:10B7A000B88AA29C6EA8F0EE488A8895FBF7A8FF9D
:10B7B000D4216846FBF7A4FFCDF8F0D10DF1A8081D
:10B7C000702135A8FBF79CFF35A87F904BA8879088
:10B7D000702152A8FBF794FF52A88346162068AF49
:10B7E0004FF02A0A83908290012C06D0C7210020B6
:10B7F0009FEDA40A29EE000A1DE07721F7E7969A4B
:10B8000002EB8002D2ED000AF5EEC00AF1EE10FA6A
:10B8100013D0F4EEC00AF1EE10FA0ADB7C9AC2ED06
:10B82000000A979A125C0A4408F8012B7C9A121DB0
:10B830007C92401CC0B2B042E1D30026B6EE009A22
:10B840009FED91AADFED919A4FEA0D0404EB86007B
:10B8500090ED000AB5EEC00AF1EE10FA72D0A01910
:10B86000959990F8A8000A2300EE100A78AAF8EE3D
:10B87000400AB0EE490A00EE890AF1EE040A30EE01
:10B88000600ABCEEC00A10EE100AC0B28A9001EB4A
:10B8900080006EA90CF07AFFB0EE4A0A6EA800F0A4
:10B8A00061FB70B30A216EA810F0D3FB00206EA9D3
:10B8B00001EB800C9CED001AB5EEC01AF1EE10FA07
:10B8C0003CD060EE290AB4EEE01AF1EE10FA29DD60
:10B8D000002235AB03EB8208D8ED000AF5EEC00A72
:10B8E000F1EE10FA08D0F4EE410AF1EE10FA05D0AC
:10B8F000521CD2B22A2AEDD3889A1AB10022889219
:10B9000010E01BE07F9A82ED001A0A1892F82830A6
:10B910008A9A1A44879B1A707F9A121D7F92879A7F
:10B92000521C87920B18F0EE480A0022401CCCED06
:10B93000000AC0B283F828200A28B9D3761CF6B2D0
:10B94000564583D3B0EE4A0A35A800F00BFBE0B3AE
:10B950002A2135A810F07DFB60EE290A002135A8C8
:10B9600000EB810292ED000AB5EEC00AF1EE10FA8A
:10B9700010D0B4EEE00AF1EE10FA06DD4218ABEC9E
:10B98000010A92F8582007F8012B491C839AC9B282
:10B990009142E5D300270DF5A47B00BF04EB87009F
:10B9A00090ED000AB5EEC00AF1EE10FA5FD0002665
:10B9B0000BEB860191ED000AB5EEC00AF1EE10FA2C
:10B9C00051D0E11991F8A81000E013E00BEB060844
:10B9D00098F85800C1EB400040B2FEF717FB48450D
:10B9E0002CD2814698F85850959800EB850090ED40
:10B9F000008A33E004EB800191ED000AB5EEC00A45
:10BA0000F1EE10FA0ED0211830EE088A91F8A81045
:10BA1000401C00EE901AC0B22A28F8EE600A40EEF0
:10BA2000208AE7D3B0EE490AC8EE880A00EE890AF8
:10BA3000BCEEC00A10EE100AC5B218E00ED198F89C
:10BA40005800959901EB800191ED000AB4EEC80A07
:10BA5000F1EE10FA02DD0546B0EE408A761C8298BF
:10BA6000F6B28642A4D37F1CFFB2574596D30DF59C
:10BA70000D7D2846BDEC068B06B0BDE8F08F0000BA
:10BA800000000000CDCC4C3F77CC2B321F856B3FA4
:10BA90002DE9FF4F83462DED020B1F4664252DED4A
:10BAA000048BB3B0B0EE409A4FF000089FED588A77
:10BAB000342119A8FBF724FE342126A8FBF720FE29
:10BAC00026A882460DF1C00964216846FBF718FEDE
:10BAD0006E4614AC0020DFED4F8A69EE280A17E0AD
:10BAE0003A9901EB800191ED000AB5EEC00AF1EE42
:10BAF00010FA0FD0B4EEE00AF1EE10FA06DBAAEC71
:10BB0000010A3B99095C633109F8011B401CC0B272
:10BB1000B842E5D30C2323AA19A90BF1C4000CF0F9
:10BB200035FE9FED3D0A19A800F01CFAE8B3052187
:10BB300019A810F08EFA60EE280A00200DF16401B9
:10BB400001EB800292ED000AB5EEC00AF1EE10FAA8
:10BB500010D0B4EEE00AF1EE10FA07DD0A18A6ECF8
:10BB6000010A92F82820313204F8012B401CC0B29F
:10BB70000A28E5D3002626AF4FEA0D0A07EB860018
:10BB800090ED000AB5EEC00AF1EE10FA38D00024AC
:10BB90000AEB840191ED000AB5EEC00AF1EE10FA4D
:10BBA0002AD0B91991F8281000E029E00AEB04091D
:10BBB00099F85000C1EB400040B2FEF727FAA842C6
:10BBC00007D299F8508005460BEB880090ED008A6B
:10BBD0000EE00DD199F850000BEB800191ED000AB9
:10BBE000B4EEC80AF1EE10FA02DD8046B0EE408AEB
:10BBF000641CE4B20A2CCBD3761CF6B20A2EBDD359
:10BC000033B04046BDEC048B06B0BDE8F08F0000B9
:10BC1000000000001F856B3F77CC2B322DE9F04FE1
:10BC200000268DB0DFF8A081B14604964FF48075F0
:10BC3000012437460596284615F002F838B1D8F8A1
:10BC40000403204203D0284614F0F0FF26432D1DA4
:10BC500064007F1CADB2082FEDD34FF4BE742046B4
:10BC600014F0EEFF48B1204614F0E0FF46F0004625
:10BC700004AA0221002014F0C3FF544C16F0FF0F59
:10BC800015D00127002537420DD008EB8501D1F8EA
:10BC90001005D1F81015C0F3052054F82520C1F384
:10BCA000014102B190477F006D1C082DEBD3002E9F
:10BCB0007EDA0020CDF82890411E0DF1100B07AA66
:10BCC000CDF82C9042F82010401C91460228F9D360
:10BCD00000252E46A11911F86C7F91F9000027F07C
:10BCE000C008401C40D007A9404613F007FB40B3F2
:10BCF0004FEA971A404609F017FC54F820701FB11C
:10BD0000BAF1030F03D006E0BAF1030F2CD10AA950
:10BD1000404613F0FBFA02A8CDF8088014F0BAFEF2
:10BD2000029900EB8100D0F8000704A9C0F301409C
:10BD30000290404613F0E2FA0028029802D002284E
:10BD400002D011E003280FD1BAF1030F08D10298F5
:10BD5000022833D00221404614F06FFE6D1CEDB274
:10BD600017B151464046B847761C072EB2D3002D76
:10BD700021D001AA0221002014F042FF00205A46DF
:10BD80000DF1040152F8206051F82030B34217D071
:10BD900000200AAE4FEA090351F8207042F82070E3
:10BDA00056F8207043F82070401C0228F4D300E0BD
:10BDB00001E0002D8CD10DB0BDE8F08F0321CAE762
:10BDC000401C0228DED3F6E700600040405B002004
:10BDD00022A1002000F0B0FA29A1002000F0ACFA66
:10BDE000EFF308802F49304C0860026822604168F8
:10BDF00061608168A160C168E16001692161416998
:10BE000061618169A161C069E06128A1002000F041
:10BE100093FA29A10020626800F08EFA29A100207F
:10BE2000A26800F089FA2AA10020E26800F084FAF2
:10BE30002AA10020226900F07FFA2BA1002062696C
:10BE400000F07AFA2BA10020A26900F075FA2CA16B
:10BE50000020E26900F070FAFEE700000D0A202AD7
:10BE60002A2A2A2048617264204661756C74204831
:10BE7000616E646C6572202A2A2A2A200D0A00004D
:10BE80000D0A202A2A2A2A20537461636B205265E6
:10BE90006769737465722044756D70202A2A2A2A96
:10BEA000200D0A0034320020E0EA012072303D25E6
:10BEB0003038580D0A00000072313D253038580DD9
:10BEC0000A00000072323D253038580D0A0000008B
:10BED00072333D253038580D0A0000007231323D72
:10BEE000253038580D0A00006C723D253038580D49
:10BEF0000A00000070633D253038580D0A0000002C
:10BF00007073723D253038580D0A000070B500225C
:10BF10000C8813465FF0010505FA03F6344206D09B
:10BF2000C3F10F0605FA06F1114361F30F025B1C22
:10BF3000102BF1DB028070BD70B500220C78134627
:10BF40005FF0010505FA03F6344206D0C3F1070697
:10BF500005FA06F1114361F307025B1C082BF1DBC4
:10BF6000027070BD002107E0F4EEC00AF1EE10FA95
:10BF700001DD012107E0001DD0ED000AF5EEC00A49
:10BF8000F1EE10FAF0D10846704710B5002307E033
:10BF9000491E047889B2944201D9012302E0401C71
:10BFA0000029F5D1184610BD704700F01F0201218D
:10BFB00091404009800000F1E020C0F880127047F5
:10BFC00000F01F02012191404009800000F1E020B3
:10BFD000C0F88012704700F01F0201219140400913
:10BFE000800000F1E020C0F88011704700F01F02CF
:10BFF000012191404009800000F1E020C0F880114B
:10C00000704700F01F02012191404009800000F1BB
:10C01000E020C0F80011704700F01F02012191409C
:10C020004009800000F1E020C0F800117047490786
:10C03000090E002806DA00F00F0000F1E02080F879
:10C04000141D704700F1E02080F800147047490784
:10C05000090E002806DA00F00F0000F1E02080F859
:10C06000141D704700F1E02080F8001470470000B4
:10C07000BFF34F8F05480168054A01F4E0611143A1
:10C080000160BFF34F8F00BFFDE700000CED00E043
:10C090000400FA05BFF34F8F05480168054A01F413
:10C0A000E06111430160BFF34F8F00BFFDE7000067
:10C0B0000CED00E00400FA0570B54FF480763046D0
:10C0C00013F006FA114CB50560B1304613F007FACB
:10C0D0000120C5F80803607920B90120607121684A
:10C0E000002088474FF48276304613F0F1F900289B
:10C0F0000AD0304613F0F3F90220C5F8080321688E
:10C10000BDE870400120084770BD0000782B00207A
:10C1100010B50A4C4FF48071204615F0C7FA00287C
:10C120000AD0074800214171C4F8001102688168F3
:10C13000BDE810400020104710BD000000900240F4
:10C14000105C002010B504462EF00EFBB0FBF4F19D
:10C1500004FB110010BD70B50D4604462EF004FB23
:10C160006D1CB0FBF5F105FB11000104090C01D0B9
:10C17000084670BD204670BD064882B000210160AF
:10C1800000680090044800680449C0B2496802B0E1
:10C190000847000000D1004008D50040882B00204F
:10C1A000F8B51D480188491C8AB21C4902800B68F9
:10C1B0005B1C0B600021B2F57A7F03D1184B012282
:10C1C0001A7001800025EFF31184402080F311885C
:10C1D0001448D0F80465C0F80011D0F800010090B0
:10C1E0001FF0EAFB301A20F07F46012E07D91FF01E
:10C1F000D5FB022803D000261FF0EAFB0543761E7C
:10C20000FAD225B108494FF08050086040BFE0B233
:10C2100080F31188F8BD0000E42C0020D42E00200B
:10C22000CA3100200010014004ED00E070B5194C47
:10C23000D4F8040120B10220C4F8080317F0F2FF7B
:10C240001548817821B10021817001200CF0BCFFDC
:10C25000D4F8040310F4803F05D0D4F8400110B1A5
:10C2600000200CF0B1FFD4F804034FF4003510F4B3
:10C27000003F0ED0D4F844014FF4A271002808D03A
:10C28000204615F0A0FCC4F84853C4F8085312F037
:10C2900075F970BD00400240E036002000F09ABD04
:10C2A000F8B50D4B0646144618780D4608B900F04F
:10C2B00091FD00208DF80000684604F07FFC2246C6
:10C2C0002946304600F00AF804469DF8000004F0C4
:10C2D00099FC2046F8BD000064FC002070B50E46B5
:10C2E000144900EB400001EBC0051446E86A18351C
:10C2F00020B101280FD0022805D113E0284600F014
:10C300009FFDA04201D2002411E02246314628467A
:10C3100000F0BCFE0BE0284600F092FDA042F4D2F3
:10C320000446F2E73146284600F083FE04462046E4
:10C3300070BD000064FC00200FB408B504A9009192
:10C340006A46039900F003F801B05DF814FB2DE98B
:10C35000F04198B0064607A8029040200025CDE99C
:10C360000305CDE9055690460C4614F8011B00293B
:10C3700073D0252908D002A800F03CFE05980028BB
:10C38000F3DA18B0BDE8F081002001212278232AD9
:10C390001ED02B2A19D02D2A02D0302A08D102E033
:10C3A00040F0010001E040F00200641C0029EDD1E2
:10C3B00000222178A1F130030A2B0CD202EB820279
:10C3C00001EB4202303A641CF3E740F00400ECE772
:10C3D00040F00800E9E70023CFB22E2F0BD114F86C
:10C3E000011FA1F130070A2F05D203EB830301EBF4
:10C3F0004303303BF3E76C290DD068290BD070293B
:10C4000054D00BDC252916D0582931D063290CD003
:10C41000642913D114E014F8011FECE7732934D018
:10C4200075291BD0782909D122E0D8F80000011D18
:10C43000C8F80010017802A800F0DCFD641C9DE73C
:10C44000D8F800100F1DC8F800700968CDE9002069
:10C450000A2202A800F000FDF0E733E0D8F800104F
:10C460000F1DC8F800700968CDE900200A2208E015
:10C47000D8F800100F1DC8F800700968CDE9002039
:10C48000102202A800F04CFDD8E7D8F80000011DEA
:10C49000C8F80010076817F8011B0029CED002A8C1
:10C4A00000F0A8FD05980028F5DAC7E7D8F80000E5
:10C4B000011DC8F8001001680820CDE900050346F9
:10C4C0001022DEE7059800287FF75BAF049820B1C3
:10C4D000024607A93046FFF7E3FEDDE904100844F1
:10C4E00005904EE7014902481CF0AABD905C00206F
:10C4F0000030004002494FF040200EF041BB0000E8
:10C50000C85B0020014902480EF03ABBEC5B0020FA
:10C5100000F0024008B500200090094869464068D4
:10C520001EF03CFB0098002808D006494FF08050D0
:10C53000086040BFBFF34F8FBFF36F8F08BD00008F
:10C54000E82A002004ED00E07CB5614E4FF48074D1
:10C550002146304613F006FF5E4DC8B321463046F3
:10C5600013F00BFF29E0627A94F90810606812F06A
:10C5700079F91FE0207912F03DF91BE0637B94F913
:10C580000C20D4E9010112F0B9FD13E0217A6068B2
:10C5900012F060FD0EE0207911F00CFC0AE0207929
:10C5A00011F018FC06E0207911F091F802E02079F2
:10C5B00011F08EF8474816F0F7FB28786978884222
:10C5C00015D0454901EB0014207808287CD200E002
:10C5D0000DE0DFE800F00B0A090807060504E6E7AE
:10C5E000E1E7DCE7D7E7D1E7C8E7C3E7BBE74FF40C
:10C5F00082742146304613F0B5FE28B111F08AF856
:10C600002146304613F0B9FE4FF48474214630467B
:10C6100013F0A8FE002859D02146304613F0ADFE95
:10C620000FE0207911F06AFA4CE0A37A617A207A5F
:10C63000626811F011FAE16808702648801C19F050
:10C6400081FFA878E978884240D0244900EB400077
:10C6500001EBC00420780B2836D2DFE800F0070693
:10C660000814191D2125292C3000DEE7D9E761685F
:10C67000607CCDE90001237C617A207AE26811F0C8
:10C6800075FA6169D8E72079E16811F0C1F819E01D
:10C69000207911F04FF815E0207911F09FF811E0A2
:10C6A000606811F08FF90DE011F06EF805E00BE015
:10C6B00011F05AF801E011F0FFF96168BCE7606819
:10C6C00011F05AF9A168B7E7AFF300807CBD000014
:10C6D000007001402C3700206C4202209C43022055
:10C6E00008B50DF09BFB05208DF8000001231A46CC
:10C6F000694648200DF0BAFB08B103F0E0F80222C9
:10C70000694648200DF0A2FB08B103F0D8F8BDF847
:10C7100000000B4940BA08800AA10020FFF70CFE78
:10C72000022269460120FEF745FEFDF7F1FB0B48AA
:10C730000CF0C6FC002801D003F0C1F808BD0000D1
:10C74000F02C002053474D353830333120434849D1
:10C75000505F49442049533A200A0000AD38030095
:10C7600008B5002000908DF800008DF8010001232D
:10C770001A46694648200DF079FB08B103F09FF88E
:10C780000222694648200DF061FB08B103F097F8DA
:10C79000BDF8000040BA00B208BD0000F0B54FF08F
:10C7A0008052674FD2F83001664ED2F83411431CE4
:10C7B00005D004460B460025082C05D013E033783D
:10C7C0003C78C3F30313F6E72BB1012B03D0022B04
:10C7D00001D0032B07D14FF08043C3F80C51C3F8AD
:10C7E0001051594B1D60431C04D004460B46082CC5
:10C7F00005D061E033783C78C3F30313F7E72BB13E
:10C80000012B03D0022B01D0032B55D14F4B1B68BA
:10C810004F4C23604D4B1B1D1B68241D23604B4B4D
:10C8200008331B68241D2360484B0C331B68241DF0
:10C830002360464B10331B68241D2360434B143385
:10C840001B68241D2360414B18331B68404C203467
:10C8500023603E4B1C331B68241D23603B4B20335D
:10C860001B68241D2360394B24331B68241D23605F
:10C87000364B28331B68241D2360344B2C331B6834
:10C88000241D2360314B30331B68314C403423600E
:10C890002E4B34331B68241D23602C4B38331B680C
:10C8A000241D2360294B3C331B68241D2360274B28
:10C8B00040331B68241D2360082804D10B0002D1DB
:10C8C000254C244B2360082804D10B0002D1234CB3
:10C8D000FB232360082808D10B0006D192F85842A8
:10C8E0001F4A136864F303031360082804D10A0085
:10C8F00002D11C4B82011A60421C03D13178387876
:10C90000C1F3031108280DD129B1012903D002294F
:10C9100001D0032906D114480168C90702D06FF07D
:10C92000010101601148016841F470010160BFF329
:10C930004F8FBFF36F8F0F490D480860F0BD0000A7
:10C94000E00F00F0E80F00F038050040040400108C
:10C9500020C50040488103008C56004018F5004077
:10C96000E40E0040409602400004004088ED00E0E4
:10C970000090D003CC3500202DE9F047104E06275B
:10C9800000244FF4A0784FF4803900BF08EB8405F1
:10C9900009FA04F0715961B1D6F80413014208D0C4
:10C9A0002946304615F086FA0648D0E90021284687
:10C9B0009047641CE4B2BC42E8D3BDE8F0870000B5
:10C9C00000A00140BC5B0020014800680047000057
:10C9D000802B0020014902481DF06EBC6C5C0020D9
:10C9E0000080024023A10020FFF7A6FC2AA100201E
:10C9F000FFF7A2FCEFF308803049314C0860026871
:10CA00002260416861608168A160C168E16001697C
:10CA10002161416961618169A161C069E06129A108
:10CA20000020FFF789FC2AA100206268FFF784FC40
:10CA30002AA10020A268FFF77FFC2BA10020E2685A
:10CA4000FFF77AFC2BA100202269FFF775FC2CA1CF
:10CA500000206269FFF770FC2CA10020A269FFF79B
:10CA60006BFCE2692CA10020FFF766FC2D4A2EA189
:10CA7000F9E700000D0A202A2A2A2A205573616747
:10CA800065204661756C742048616E646C65722027
:10CA90002A2A2A2A200D0A000D0A202A2A2A2A20B8
:10CAA000537461636B2052656769737465722044C7
:10CAB000756D70202A2A2A2A200D0A00343200209F
:10CAC000E0EA012072303D253038580D0A000000A0
:10CAD00072313D253038580D0A00000072323D2574
