:020000040002F8
:10700000F8410020C1730200C9730200CB73020073
:10701000CD730200CF730200D173020000000000A4
:10702000000000000000000000000000D373020018
:10703000D573020000000000D7730200D97302006C
:10704000BD760200DB73020071790200DB7302007F
:10705000DB730200DB73020009750200DB730200C0
:10706000DB730200DB730200DB730200DB730200E0
:10707000DB730200DB730200DB730200DB730200D0
:10708000DB73020015770200DB730200DB73020082
:10709000DB730200DB73020025770200DB73020062
:1070A000DB730200DB730200DB730200DB730200A0
:1070B000DB730200DB730200000000000000000030
:1070C000DB730200DB730200DB730200DB73020080
:1070D000DB730200DB730200DB730200DB73020070
:1070E000DB730200DB730200DB73020000000000B0
:1070F00000000000DB73020000000000DB730200F0
:10710000000000000000000000000000000000007F
:10711000000000000000000000000000000000006F
:10712000000000000000000000000000000000005F
:10713000000000000000000000000000000000004F
:10714000000000000000000000000000000000003F
:10715000000000000000000000000000000000002F
:10716000000000000000000000000000000000001F
:10717000000000000000000000000000000000000F
:1071800000000000000000000000000000000000FF
:1071900000000000000000000000000000000000EF
:1071A00000000000000000000000000000000000DF
:1071B00000000000000000000000000000000000CF
:1071C00000000000000000000000000000000000BF
:1071D00000000000000000000000000000000000AF
:1071E000000000000000000000000000000000009F
:1071F000000000000000000000000000000000008F
:10720000DFF80CD000F06EF900480047B58C0200A2
:10721000F841002030B450E8012F93B2C4892344D0
:107220008489A34228BF1B1B0489A34202BFBFF36A
:107230002F8F002007E0C3EA020340E80134002C4E
:10724000E9D14FF001000A6030BC704750E8012FCF
:10725000C2EA024240E801210029F7D1704730B468
:1072600050E8022F1FFAA2F3C488A34202BFBFF363
:107270002F8F00200DE0C48923448489A34228BFB6
:107280001B1BC2EA034340E80234002CE8D14FF054
:1072900001000A6030BC704750E8022FC2EA224267
:1072A00040E802210029F7D17047034653E8022F36
:1072B000D988B2EB324F4FF0000017BF92B241EACB
:1072C000014142EA014104E05A68B2EB324F08BF83
:1072D000012043E80212002AE8D1704730B4044686
:1072E00054E8000F0D4644E80053002BF8D1156018
:1072F00030BC704730B4044654E8000F40EA010542
:1073000044E80053002BF7D1156030BC704730B40F
:10731000044654E8000F00EA010544E80053002B3E
:10732000F7D1156030BC704730B4044654E8000F04
:1073300080EA010544E80053002BF7D1156030BC0A
:10734000704730B4044654E8000F00EB010544E8F0
:107350000053002BF7D1156030BC704730B40446A1
:1073600054E8000FA0EB010544E80053002BF7D1CF
:10737000156030BC704770B404464FF0000054E80C
:10738000006F0D68AE4207BF44E80023012044E8C7
:1073900000630E60002B1CBF0020F0E770BC70473C
:1073A00030B4044654E8000F88422CBF451A054605
:1073B00044E80053002BF5D1156030BC7047000045
:1073C0000648804706480047FEE7FEE7FEE7FEE77F
:1073D000FEE7FEE7FEE7FEE7FEE7FEE729770200AD
:1073E000017202002DE9F05F0546002092469B469F
:1073F00088460646814640241BE0284641464746CB
:10740000224600F05EF853465A46C01A914110D306
:1074100011461846224600F016F82D1A67EB0108AF
:107420004F4622460120002100F00DF817EB00091D
:107430004E41201EA4F10104DFDC484631462A46B5
:107440004346BDE8F09F202A04DB203A00FA02F10F
:10745000002070479140C2F1200320FA03F3194342
:10746000904070470048704778B8020040EA010336
:107470009B0703D009E008C9121F08C0042AFAD2EA
:1074800003E011F8013B00F8013B521EF9D27047AE
:10749000D2B201E000F8012B491EFBD27047002256
:1074A000F6E710B513460A4604461946FFF7F0FF03
:1074B000204610BD421C10F8011B0029FBD1801A88
:1074C0007047202A04DB203A21FA02F0002170479D
:1074D00021FA02F3D040C2F120029140084319463C
:1074E00070470000064C074D06E0E06840F00103DD
:1074F00094E8070098471034AC42F6D3FFF784FEB7
:10750000ECBE02000CBF02002DE9F04F00268DB04A
:10751000DFF8A081B14604964FF480750124374608
:107520000596284602F086F838B1D8F804032042C0
:1075300003D0284602F074F826432D1D64007F1CFA
:10754000ADB2082FEDD34FF4BE74204602F072F8AE
:1075500048B1204602F064F846F0004604AA022131
:10756000002002F047F8544C16F0FF0F15D0012709
:10757000002537420DD008EB8501D1F81005D1F870
:107580001015C0F3052054F82520C1F3014102B1C4
:1075900090477F006D1C082DEBD3002E7EDA002073
:1075A000CDF82890411E0DF1100B07AACDF82C90B4
:1075B00042F82010401C91460228F9D300252E469F
:1075C000A11911F8607F91F9000027F0C008401C54
:1075D00040D007A9404601F05FFD40B34FEA971A3B
:1075E000404600F0AFFF54F820701FB1BAF1030F0E
:1075F00003D006E0BAF1030F2CD10AA9404601F0EE
:1076000053FD02A8CDF8088001F098FF029900EB25
:107610008100D0F8000704A9C0F301400290404661
:1076200001F03AFD0028029802D0022802D011E0B1
:1076300003280FD1BAF1030F08D10298022833D0E2
:107640000221404601F054FF6D1CEDB217B15146C6
:107650004046B847761C042EB2D3002D21D001AA93
:107660000221002001F0C6FF00205A460DF104015E
:1076700052F8206051F82030B34217D000200AAEF3
:107680004FEA090351F8207042F8207056F8207034
:1076900043F82070401C0228F4D300E001E0002DE4
:1076A0008CD10DB0BDE8F08F0321CAE7401C022841
:1076B000DED3F6E700600040BC1A002070B54FF43E
:1076C0008076304601F0FAFC114CB50560B13046C9
:1076D00001F0FBFC0120C5F80803607920B9012006
:1076E00060712168002088474FF48276304601F0AF
:1076F000E5FC00280AD0304601F0E7FC0220C5F87E
:1077000008032168BDE870400120084770BD0000F3
:107710002819002002490248091F09680068084723
:107720007819002002F0DABCF0B54FF080527F4E9D
:10773000D2F830017E4FD2F83411431C08D00546F0
:107740004FEA010400234FF0010C082D05D013E08F
:107750003B783578C3F30314F4E72CB1012C03D044
:10776000022C01D0032C07D14FF08044C4F80C3117
:10777000C4F810316F4C2360441C04D005460C46FD
:10778000082D05D061E03C783578C4F30314F7E7A1
:107790002CB1012C03D0022C01D0032C55D1664C06
:1077A0002468664D2C60644C241D24682D1D2C60BB
:1077B000614C083424682D1D2C605F4C0C34246807
:1077C0002D1D2C605C4C103424682D1D2C605A4CEF
:1077D000143424682D1D2C60574C18342468574DE0
:1077E00020352C60544C1C3424682D1D2C60524CC8
:1077F000203424682D1D2C604F4C243424682D1D0A
:107800002C604D4C283424682D1D2C604A4C2C349F
:1078100024682D1D2C60484C30342468474D403579
:107820002C60454C343424682D1D2C60424C383477
:1078300024682D1D2C60404C3C3424682D1D2C6088
:107840003D4C403424682D1D2C60082804D10C00C8
:1078500002D13C4D3A4C2C60082804D10C0002D1D6
:10786000394DFB242C60082808D10C0006D192F871
:107870005852364A146865F303041460082804D18A
:107880000A0002D1324C82012260421C03D13978B5
:107890003078C1F3031108280DD129B1012903D093
:1078A000022901D0032906D12A480168C90702D05C
:1078B0006FF0010101602848016841F47001016026
:1078C000BFF34F8FBFF36F8F4FF01021D1F800023D
:1078D000002803DBD1F80402002823DA1F4AC2F88B
:1078E00000C01F480468002CFCD01224C1F80042DC
:1078F0000568002DFCD0C1F8044201680029FCD0C5
:10790000136001680029FCD0BFF34F8F12487C3808
:107910000168144A01F4E06111430160BFF34F8F25
:1079200000BFFDE7114910480860F0BDE00F00F00E
:10793000E80F00F0380500400404001020C50040A6
:10794000488103008C56004018F50040E40E0040CA
:10795000409602400004004088ED00E004E501404C
:1079600000E401400400FA050090D003FC19002057
:1079700001480068004700003019002002E008C8F4
:10798000121F08C1002AFAD170477047002001E099
:1079900001C1121F002AFBD17047000001212028DD
:1079A00003DA81400548014003E0402802DA20382C
:1079B000814009B10120704700207047FC06FFBDDF
:1079C00030B593B05920ADF83C00184811901720FD
:1079D000ADF8400004253C216846FFF760FD002417
:1079E0000FA88DF8004009908DF803501821104819
:1079F000FFF755FD0E4805210C4A017044600475DF
:107A0000A02181608481103A684602CA00F0C8F95A
:107A100008B100F0A7F80549054A1039081F72DFC0
:107A2000002801D000F09EF813B030BDEC18002003
:107A3000001A0020022000F0CFBA000070B5002428
:107A4000064D06E06868012110F8340002F04CFC95
:107A5000641C28788442F5D3002070BD38190020BA
:107A6000F8B516460C4605460A2A01D20720F8BD8D
:107A700002F030FD18B902F0F5FC0028F7D1134FE1
:107A8000202113487D603C70BE60FFF708FD002098
:107A9000C7E904000F4E0DE005EBC400316800910A
:107AA00081788DF8011000780B4A694602F068FC75
:107AB0000028DCD1641EE4B2EED2BDE8F8400548EF
:107AC0000021064A001D00F05FB8000038190020B0
:107AD000981B002080B50200398A02003986020016
:107AE00072B602F049F800BF01F08AFE0028FBD10F
:107AF00011481249401AC408012000EB044010A1AB
:107B000001F098FF11480068C00700D000BE0220B5
:107B100000EB04400EA101F08DFFBFF34F8F0B4827
:107B2000E43801680E4A01F4E06111430160BFF3DB
:107B30004F8F00BFFDE700006CBF02001CBF0200BA
:107B4000466174616C206572726F7200F0ED00E046
:107B500053797374656D207265736574000000005D
:107B60000400FA050EB500210091CDE901106A4626
:107B700044F20100FFF7B4FF0EBD0000014800F021
:107B8000C2BD0000581900203AB1006801294261C5
:107B900000D00021016100207047072070470000DD
:107BA00038B5114808235822416800910F490068F0
:107BB00001F0BFF9002815D10D4A69460D4800F0C3
:107BC000A7FD04000ED101210A4800F018FE012390
:107BD000094A1946074800F06EFD06490120083998
:107BE0000870204638BD000088B50200C81B002080
:107BF000E1AA020058190020FFFF7F0070B504467B
:107C0000007F0D4608B1002070BDA26100F0FAFEB1
:107C1000401941F10001C4E90201206900B1256168
:107C20002146BDE87040002003F0E2B90146002083
:107C30000877012003F0DCB930B5EFF3108172B69C
:107C40000D4A9468012324B10370002900D162B663
:107C500030BD93604FF0E023D3F88051074C2540AE
:107C60001560C3F88041D3F8844154605A17C3F8B3
:107C7000842100220270E8E7201C0020FC06FFBDE2
:107C80000B498A68002A11D000280FD1EFF3108029
:107C900072B60B684FF0E022C2F800314B68C2F8B0
:107CA000043100228A60002800D162B670470000CB
:107CB000201C002070B5054608680C46411C04D005
:107CC00001F071FC206801F0FFFB6068411C02D0EC
:107CD000002101F0E7FB2968A069C1F82405607D57
:107CE000227D29681043C1F86C05D4E90012286888
:107CF000C0F81425C0F80C15207D012814D1A06807
:107D0000411C02D0002101F0CDFBE068411C04D0F1
:107D100001F049FCE06801F0D7FBD4E902122868C1
:107D2000C0F80825C0F8101570BD70B50546086884
:107D30000C46411C04D001F040FC206801F0CEFB51
:107D40006068411C02D0002101F0B5FB2968A069E0
:107D5000C1F82405607D217D2A680843C2F86C05BE
:107D6000D4E900122868C0F80C15C0F81425207D4D
:107D7000012814D1A068411C02D0002101F09BFB16
:107D8000E068411C04D001F018FCE06801F0A6FB9B
:107D9000D4E902122868C0F80825C0F8101570BD93
:107DA0002DE9FC47002517880646158090F82D0020
:107DB0001446894630B13A462146484600F0B1F8AB
:107DC000051E09D1B0784FF00C0A18B32088C846B8
:107DD000001DB84202D95046BDE8FC87684679DFED
:107DE0000028F9D12088032108F8001020881921E3
:107DF000401C80B2208008F800102088401C80B20F
:107E0000208000EB0801BDF8000003F0C0FA2188D3
:107E100008442080F0780222C8B1218896F9033006
:107E200001F1030C4846BC45D5D8425421884FF097
:107E3000010C491C89B2218000F801C02188491C2D
:107E400089B2218009F801302088401C20807068A8
:107E5000B8B1218890F9003001F1030C4846BC45C7
:107E6000B9D8425421880A22491C89B2218042543F
:107E70002188491C89B2218009F801302088401CE2
:107E80002080308950B1CDE900474B4606220221BF
:107E900006F1080003F0EAFA051E9DD1308A50B1C0
:107EA000CDE900474B460722032106F1100003F0FD
:107EB000DDFA051E90D1308B50B1CDE900474B461D
:107EC0001522142106F1180003F0D0FA051E83D103
:107ED000306A30B13B462246494600F069FB051E38
:107EE000DBD1706A30B13B462246494600F044FF80
:107EF000051ED2D196F82C0038B13B4622464946A1
:107F0000304602F02DFF051EC7D1307838B13B4610
:107F100022464946304600F0B9FF051EBDD128462D
:107F20005AE77CB5054608880C460930904201D9CD
:107F30000C207CBD68466DDF0028FAD1218808201E
:107F4000685420881B21401C80B22080295420883E
:107F5000401C80B220802844DDF801100160BDF88B
:107F6000051081802088801D80B220809DF800103F
:107F7000490800D0012129542088401C208000207D
:107F80007CBD00002DE9FC410646C0074FF000050E
:107F90000ED0104F00240122385D009500231146B9
:107FA000019501F009FA641C042CF4D300F04EF89A
:107FB000B0070DD5074E0024361D0022305D032387
:107FC00000951146019501F0F7F9641C042CF4D3D7
:107FD000BDE8FC813AB50200094908B5085C00908B
:107FE000684601F09DFAD0F80425009B01219940D4
:107FF00021EA0203C0F808351140C0F80C1508BD8D
:108000003AB502000249085C012101F0E0BA000023
:108010003AB502000249085C002101F0D8BA00001C
:108020003AB50200084908B5085C0090684601F0BE
:1080300077FAD0F804050099C84010F0010000D08C
:10804000012080F0010008BD3AB5020010B50024FF
:108050002046FFF7D7FF641C042CF9D310BD10B5E0
:1080600000242046FFF7D6FF641C042CF9D310BD72
:1080700010B50246064B4FF0FF3000215C5C944285
:1080800001D1084610BD491C0429F7D310BD0000DA
:108090003EB502002DE9F0470D468146FFF7E8FFA7
:1080A0000446042836D2DFF874801B481C4EA8F121
:1080B0000C0725B3012D0ED0022D2BD104EB44006B
:1080C00030444578002D25D0B968002922D02846B3
:1080D000BDE8F047084704EB4401755C0E44717835
:1080E00049B10E4A4FF48041093A8068FFF786FD96
:1080F00008B987F80390B17808F80410E2E78068BF
:10810000FFF794FD04EB4401314418F804008D7826
:10811000A842D7D0BDE8F08744B50200101900206E
:10812000781A002070B50023042810D20D4D00EB02
:108130004004012A02D101290CD00022094E00EB93
:108140004000304461B1012906D0022906D007233E
:10815000184670BD0E30C2B22A55F9E74270F7E7F3
:108160008270F5E7781A0020044A0146002012794F
:10817000D20702D0084600F04DB87047041900201D
:1081800070B506461E480024C0E90161B00720D53D
:108190000025012211462846FFF7C4FF6D1C044646
:1081A000042D02D2002CF4D013E094B940F2333203
:1081B00004211448FFF754FC04000AD1FFF73EFCE9
:1081C000040006D10F48104A0021001FFFF7DCFC15
:1081D0000446F00712D00120FFF7D4FE74B9094815
:1081E0000A4A00210C38FFF7CFFC040006D10548ED
:1081F000074A01210838FFF7C7FC0446204670BD36
:108200000419002050B50200D9840200058C020038
:10821000357A02002DE9F05F6E4C05460026607845
:10822000B34618B184F801B000F0D4FC6A4F4FF4A3
:108230007A694FF4C87A4FF00108182D69D2DFE847
:1082400005F00C1313384754696E727B727BC5843A
:1082500084848484B3B6B9BCC5C500F0BBFC38685F
:10826000FFF7E4FC06465CE00020FFF7DBFE002899
:108270004FF0000008D0FFF7C5FE022D02D14FF4E9
:10828000E16008E0484606E0FFF7C4FE022D01D198
:10829000C82000E05046410CC0034FF47A728018A9
:1082A00041F10001257052000023FFF79BF80146C1
:1082B0002AE00020FFF7B6FE00284FF0000004D0AF
:1082C000FFF7A0FE4FF44870E5E7FFF7A3FEDFE7F6
:1082D0000020FFF7A7FE00284FF0000002D0FFF7B4
:1082E00091FECFE7FFF796FED4E70020FFF79AFE56
:1082F00000284FF0000002D0FFF784FE01E0FFF7F6
:1083000089FE257040F6CD4100223868FFF776FCE3
:10831000064646E00020FFF75FFE257008E00020DB
:1083200051E025703DE084F801800120FFF754FE04
:10833000002240F26661E8E784F801800120FFF73F
:108340004BFE00224FF40051DFE77868FFF76EFC28
:108350000646D5F1110000D02EB10220FFF752FEE3
:1083600084F802B01DE0012816D980B2C821484324
:10837000C117C90341EA5041C0034FF47A72801813
:1083800041F1000152000023FFF72CF801460022C2
:108390007868FFF733FC06460220FFF73BFE84F8BF
:1083A00002803046BDE8F09F00F014FCB9E700F011
:1083B00011FCB4E700F00EFC04E000F00BFC002020
:1083C000FFF728FE0120FFF725FEAAE7FFF747FE8B
:1083D000A7E700000419002044B502002DE9F84386
:1083E0000546861C00208DF8000090460F464FF091
:1083F00001096846FFF720FC1B4C20683860D4E96F
:108400000001401AA16804F21C47081A0EE001217D
:10841000384600F0D3FD00F0FFFB0146384600F07F
:10842000CDFDD4E90001401AA168081A401C86421B
:10843000EDD8B8F1000F03D0052065F3891002E0F4
:10844000062065F39F50A2682168114004EB81016A
:10845000C8602068304420609DF80000FFF710FCE1
:108460004846BDE8F8830000D01D002070B50D46D9
:1084700004460A2902D10D21FFF7F8FFA0682268FF
:10848000411CA1601554D4E90101814204D3204666
:10849000BDE8704000F097BE70BD0000034803C8FF
:1084A000814201D10120704700207047D01D00207B
:1084B000034630B5074800210478426806E000BF53
:1084C00002EBC10005789D4203D0491CA142F7DBB5
:1084D000002030BD3819002000780221FFF7DABDF6
:1084E00005494FF0FF32082841F8202002D3084404
:1084F00080F8582070470000BC1A0020F0B54FF0FB
:10850000FF3512B10023082601E008230C260C4C8D
:1085100005E000BF54F823707F1C04D05B1CB342FD
:10852000F8D32846F0BD26185DB286F8305044F8DE
:108530002310002AF5D1E11881F85800F1E7000076
:10854000BC1A00200249084490F93000704700002E
:10855000BC1A002070B5084C050009D01034216801
:10856000002907D008682060496828468847F6E750
:108570000834F4E770BD0000A81A0020054A012164
:1085800020B1012805D19170FFF7E4BF51700020A0
:10859000FAE77047A81A002010B5D0E90234D1E9F3
:1085A0000220D11AA04101D3012010BD002010BD2E
:1085B0002DE9F04117880646B81D14460D4698422D
:1085C00002D90C20BDE8F0813188072206290AD3A0
:1085D0004FF4486C4FF6FF73614501D9994202D1BF
:1085E0007088062801D21046ECE7604501D9984210
:1085F000F9D1994203D0984201D08142F3D80520A5
:10860000E85520881221401C80B2208029542088FF
:10861000401C80B220804119308802F0B8FE2188C9
:10862000084480B220804119708802F0B0FE218891
:10863000084420800020C5E770B500240F4D10E0ED
:10864000686800EBC406307801F004FF71780129F6
:1086500001D0012100E000214140307800F058F9BC
:10866000641C28788442EBDBD5E90401084303D07D
:10867000BDE8704002F0D8BC70BD00003819002081
:1086800010B50021024800F0A4FC80F3100010BDDA
:10869000EC2100204FF480328A400168C1F8482361
:1086A0000068C0F8082370474FF4A07202EB810104
:1086B00089B200F09DB92DE9F04105460E464FF410
:1086C000A07000EB860081B228684FF48034B4407B
:1086D000984622F07F47C0F808432868C0F848430E
:1086E000286801F06DFB286800EB8600C0F8407533
:1086F0002868C0F84443B8F1000F02D02868C0F8D9
:108700000443BDE8F0810068D0F80405704700001C
:1087100070B54379224C44F823204279241D04EBA0
:10872000C202204B1579204A9A1AD3082DB1082489
:10873000022000EB03401DA12EE002680D88C2F864
:10874000085590F904208978002A4FEA411106DA89
:1087500002F00F0202F1E02282F8141D03E002F1A0
:10876000E02282F8001490F90410012201F01F05A4
:1087700002FA05F54909890001F1E021C1F800512B
:10878000417904EBC1010A71417944F831000320B9
:10879000002400EB03400EA101F04CF9204670BD0F
:1087A0007419002054BF02001CBF02005254432021
:1087B000696E7374616E636520616C726561647962
:1087C00020696E697469616C697A65642E000000C5
:1087D0005254433A20696E697469616C697A6564C0
:1087E0002E00000090F90400012100F01F029140CA
:1087F0004009800000F1E020C0F8001270470A46EE
:10880000022100F07BB84FF4827100F0F1B80068EB
:1088100001210160704700680121416070472DE926
:10882000F05F07460C464FF4A07000EB84001FFA7F
:1088300080FA38684FF48036A6409B4622F07F4588
:10884000C0F848633868C0F808633868D0F8048511
:1088500000EB8402D2F84095C2F840855146386852
:1088600001F0AEFAA9EB080020F07F40012806D104
:10887000102001F031FD5146386801F0A1FA386846
:10888000D0F80485C0F84463A5EB080121F07F41CE
:108890003868012900EB840010D0C0F840553868D2
:1088A000D0F804156FF07F4C6A1A521E22F07F42F6
:1088B000ACEB0B03934217D362B118E06D1CC0F808
:1088C0004055102001F008FD3868D0F804054045F7
:1088D0000AD10CE000EB84006D1CC0F840553868EC
:1088E000D0F80405884202D00D20BDE8F09F012297
:1088F0003146384600F002F80020F6E70368C3F876
:108900004413002A02D00068C0F804137047000026
:108910002DE9F84F0E463449804601EB5001C0075F
:10892000097801D00F0901E001F00F074FF00009AD
:10893000424601204946FEF786FDDFF8B0A0044616
:108940000D46052F4ED2DFE807F003161B282C003A
:10895000002E47D00121404602F084FA8DF80090A5
:108960006846FFF769F95046D0E904120C431543F5
:10897000CAE9044532E00EB1022114E0002112E000
:108980004EB10321404602F06DFA4046BDE8F84F73
:10899000012102F05BBD012105E0002E22D104215E
:1089A00001E02EB103214046BDE8F84F02F05ABA6B
:1089B0000021404602F056FA0021404602F046FDF2
:1089C0008DF800906846FFF737F95046E243D0E94A
:1089D00004341A4024EA0501CAE904219DF8000084
:1089E000FFF74EF9BDE8F88F981B002038190020DA
:1089F00010B5006842581AB101F0E2F9012010BD2B
:108A0000002010BD10B50B48FFF77DFE094A083A5B
:108A1000D2E90434C018D2E9063244F10001C31A85
:108A200071EB020204D24FF08072801841F1000114
:108A300010BD00005819002010B5C0B2FFF738FD76
:108A40000446007801F006FD01466078012801D057
:108A5000012000E0002090EA010F08D00449D1E98C
:108A60000401084303D1BDE8104002F0DDBA10BD97
:108A7000381900202DE9FC5F0E008346DDE90C4724
:108A8000C6F1000098469246814600D4084601256A
:108A900003E000BF90FBFAF06D1C5045FADAA845E0
:108AA00000D9454624B1002E01DB780700D5641EAD
:108AB000B80702D5B8F1000F0AD0F80708D13CB1C9
:108AC000A54205D220215846641EFFF7CFFCF6E7E9
:108AD000002E02DA4E462D2102E0780703D52B2125
:108AE0005846FFF7C3FC07F0030002280BD1B8F18A
:108AF000000F08D13CB1A54205D230215846641E72
:108B0000FFF7B4FCF6E7CDE900474346524631464D
:108B1000584602F041FCBDE8FC9F000070B50D46D0
:108B2000044600684FF4887101F09CFB4FF490718B
:108B3000206801F097FB4FF49271206801F092FBDE
:108B40004FF4A271206801F08DFB4FF4AC712068E6
:108B500001F088FB20681149C0F8041320686907F8
:108B600040F30730090E002806DA00F00F0000F18C
:108B7000E02080F8141D03E000F1E02080F80014EC
:108B80002068012140F3073000F01F0291404009A6
:108B9000800000F1E020C0F8001170BD1003420019
:108BA000024600201268530713D502F00300012883
:108BB00002D002280CD105E0C2F383100B68801CA0
:108BC000184404E00223086803EB92521044086042
:108BD000012070470A4810B5807860B1002401E098
:108BE000022C06D02046FFF70DFA641C042CF7D3A4
:108BF00010BD0324F6E7BDE81040FFF727BA0000D8
:108C00000419002003480179C90702D00078FFF752
:108C100001BB7047041900202DE9FF4100262348BD
:108C200000F0C9F92148001F074600F0C4F9204CA4
:108C300060680090A56800E000986946284004EB51
:108C400080000C30FFF7ACFF0028F5D101AA009995
:108C500001EA050304EB8303491CDB6842F820307A
:108C6000401C00910228F2D3019800F00300012873
:108C70000BD0022810D10198032101EB90500099EC
:108C8000BDF80A6001EB900005E00198BDF80A60AC
:108C9000C0F3831008440090384600F089F908B109
:108CA0000098606004B03046BDE8F081E821002003
:108CB000D01D002008B54FF48041002000F026FFB1
:108CC00008B1FEF74FFF00F08DFDFEF769FF08B118
:108CD000FEF748FF00210120FFF752FA08B1FEF726
:108CE00041FF01F029F808B1FEF73CFF01F0BCF9A3
:108CF00008B1FEF737FF002000906946012001F01F
:108D00006FF808B1FEF72EFF684601F0E7F808B1EA
:108D1000FEF728FFFEF754FE0E480F49401AC00820
:108D2000032101EB00400DA100F084FE1148012158
:108D3000007873DF08B1FEF715FF0220FFF714FA81
:108D400008B1FEF70FFF00F05BFD0028FBD101F03A
:108D500007F8F8E76CBF02001CBF020042656163C0
:108D60006F6E206578616D706C65207374617274CC
:108D700065642E00D818002070B5144682880E460F
:108D800005462088111D0144921C994201D8FE2AF3
:108D900001D90C2070BD521C32542088FF21401C88
:108DA00080B2208031542088401C80B220808119FC
:108DB000288802F0ECFA2188084480B22080AA8832
:108DC00042B1A96841B13044FEF750FB2088A98820
:108DD00008442080002070BD072070BD2DE9F047B9
:108DE000C5881E1DB6FBF5F78946B6FBF5F10446AE
:108DF00005FB176C407916686843DDF820A0F7186A
:108E0000001F874200D9C61A166001E02468491E77
:108E10000029FBD1A5EB0C078846B74216D818E00D
:108E200004EB0C00001D09EB0803BAF1000F3A46F1
:108E300002D00146184600E01946FEF717FB2468E9
:108E4000F61B4FF0000CB844B54201D9374600E09C
:108E50002F46002EE4D1BDE8F087000030B5024671
:108E600051B100F071FE0021074C08E034F82130C8
:108E70001568AB4202D11160002030BD491C81420F
:108E8000F4D3052030BD000000000000F8B50F4607
:108E9000017814460546012901D1687830B120884F
:108EA000821C9A4232D8012902D006E00720F8BD80
:108EB00069780144891C994228D8181A801E86B204
:108EC000ADF800602188B81C084469467DDF0028A1
:108ED000EDD12978022904D06878BDF800209042AD
:108EE00005D3BDF80000B04201D809200AE00820EF
:108EF000012905D16978B14202D8ADF8001001E02E
:108F0000ADF80060BDF80010FE2901D90C20F8BDB5
:108F10002288491CB9542188491C89B2218078547F
:108F20002088401C2080BDF80010084420800020CC
:108F3000F8BD10B531B1B2FBF3F403FB14241CB13E
:108F4000092010BD0E2010BD01600021416081602C
:108F50008281C381084610BD70B50C460546FEF7F8
:108F600059F9002802D021882868084470BD10B53E
:108F70000A8849888A4203D1FEF78EF9012010BD84
:108F8000002010BD70B50C460546FEF768F90028B4
:108F900002D061882868084470BD10B50A884988E5
:108FA0008A4203D1FEF752F9012010BD002010BD06
:108FB000002100F009B8012100F010B808B56A4698
:108FC000FEF7BFF9009808BD08B56A46FEF79FF99D
:108FD00008BD08B56A46FEF781F908BD08B56A46BE
:108FE000FEF788F9009808BD08B56A46FEF7B6F99D
:108FF000009808BD38B5044600258DF80050684635
:10900000FEF71AFE21686268086890420ED9401E79
:1090100008600178238AE26801FB0325227A21682F
:10902000101AC0B20A79824200D208719DF800007D
:10903000FEF726FE284638BD38B5054600208DF8D7
:1090400000000C466846FEF7F7FDE868298A201AFA
:10905000B0FBF1F12A681068431C136001709DF8A1
:109060000000FEF70DFE38BD10B530B1017A426840
:109070000368891AC9B21A6006E00E2010BD0368A1
:109080001A68541C1C601170491EC9B2F7D20068DE
:1090900000210171084610BDC20800F0070301203D
:1090A000895C98400840704710B5C20800F007037B
:1090B000885C01249C402043885410BD00F180400E
:1090C0000068002800D00120704708B500F18040FA
:1090D000002101600068009008BD000070B50B4CD5
:1090E000207808B185250FE00020A0606060206135
:1090F000E060074801F0D2F8054601F001F808B930
:1091000001F0B6F801202070284670BDA81A002092
:109110007D85020038B500258DF800506846FEF7C1
:109120008BFD074CE068401EE060E06810B901F07C
:10913000C5F8A5709DF80000FEF7A2FD38BD00003F
:10914000A81A0020F0B505460478154889B01646DF
:1091500040F82420124A08690832A2F10C0742F8AC
:109160002400487F385520226846FEF77FF9049492
:109170002878385C48B10EB10A4A00E000226946FE
:10918000281D01F015FB09B0F0BD0EB1064A00E044
:109190000022694605F10C0001F0DCF9F3E700005C
:1091A000181900204DB2020095B002000FB408B5A6
:1091B0000399002904D004AA00926A4600F00FF82F
:1091C00001B05DF814FB10B582680446002A05D092
:1091D000D4E90403216898470020A06010BD2DE960
:1091E000FC4791460C00804676D014F8011B39B13B
:1091F00025290ED04046FFF739F920780028F4D110
:1092000098F80C00002867D04046BDE8FC47FFF7FF
:10921000DABF0020012221782B291BD02D2902D072
:10922000302908D102E040F0010001E040F00200E6
:10923000641C002AEFD100252A290ED02178A1F143
:1092400030020A2A11D205EB850201EB4205641CAB
:10925000303DF1E740F00400EAE7D9F800100B1DBB
:10926000C9F800300968641C0D44217800232E29B8
:109270000BD114F8011FA1F130020A2A05D203EB29
:10928000830201EB4203303BF3E76C290DD06829E0
:109290000BD0692921D00BDC252918D0582931D0D1
:1092A00063290ED0642915D117E014F8011FECE7EB
:1092B000702969D0732932D075291BD0782909D13A
:1092C00020E0D9F80000011DC9F8001001784046DF
:1092D000FFF7CCF8641C90E76CE0D9F800100A1D89
:1092E000C9F800200968CDE900500A224046FFF77E
:1092F000C1FBEFE7D9F800100A1DC9F80020096882
:109300000A2206E0D9F800100A1DC9F800200968F1
:109310001022CDE90050404602F03EF8DAE7D9F8D5
:10932000001000270A1DC9F800200E68C00705D1EB
:1093300012E04046761C7F1CFFF798F83178002930
:10934000F7D104E0202140466D1EFFF78FF8BD42A3
:10935000C0D9002DF6D1BDE74EB13046FEF7AAF8D0
:10936000074604E0202140466D1EFFF77FF8BD420E
:1093700006D9002DF6D103E04046761CFFF776F8BB
:1093800031780029F8D1A5E7D9F80000011DC9F806
:109390000010056830214046FFF768F87821404604
:1093A000FFF764F808200021CDE9000103461022F0
:1093B0002946B0E7BDE8FC872DE9FF411C46DDE901
:1093C0000A7815460E46684600F0AAF846EA4501B6
:1093D00041EA840141EA072242EA0841009A00EB8F
:1093E0008200C0F80017BDE8FF812DE9FF411C464F
:1093F000DDE90A7815460E46684600F09FF846EA11
:10940000450141EA840141EA072242EA0841009A03
:1094100000EB8200C0F80017BDE8FF812DE9FF4195
:109420001C46DDE90A7815460E46684600F094F8B9
:1094300046EA450141EA840141EA072242EA08413D
:10944000009A00EB8200C0F80017BDE8FF812DE90B
:10945000FF411C46DDE90A7815460E46684600F0D5
:1094600089F846EA450141EA840141EA072242EAD5
:109470000841009A00EB8200C0F80017BDE8FF81A8
:109480001CB5002100910B4601220191FFF7C6FF98
:109490001CBD1CB5002100910B4601220191FFF774
:1094A000D6FF1CBD1CB500220B460092114601924E
:1094B000FFF7B4FF1CBD1CB500220B4600921146FD
:1094C0000192FFF7C4FF1CBD1CB5002100910B46A3
:1094D000012201911146FFF7A1FF1CBD1CB500211F
:1094E00000910B46012201911146FFF7B0FF1CBD10
:1094F00013B50C46684600F021F8009900EB810195
:10950000D1F8002722F44032C1F80027009900EB7F
:109510008100D0F8001741EA0441C0F800171CBDD3
:109520000168202902D24FF0A040704701F01F01CE
:1095300001600148704700000003005001682029C5
:1095400002D24FF0A040704701F01F0101600148B6
:1095500070470000000300500168202902D24FF03C
:10956000A040704701F01F010160014870470000F2
:10957000000300500168202902D24FF0A04070473C
:1095800001F01F0101600148704700000003005016
:1095900001B56846FFF7D2FFD0F810050099C84022
:1095A00000F0010008BD01B56846FFF7D5FF009A3D
:1095B00001219140C0F8081508BD01B56846FFF7C4
:1095C000D9FF009A01219140C0F8081508BD38B5AF
:1095D00001240090684631B1FFF7A2FF00998C404A
:1095E000C0F8084538BDFFF79BFF00998C40C0F8D4
:1095F0000C4538BD1CB5094C0144D4E90034CDE913
:1096000000346C4606E000BF54F82030D3F8103523
:10961000401C08C28142F7D81CBD000070B5020092
:10962000034908B50844002101600068009008BDA6
:109630000060004002494058012800D000207047D7
:109640000060004030B5154A01460020D2F81044B1
:1096500023460AE0DB681D79854205D1401C0A28B3
:10966000F6DB4FF0FF3030BD1B68002BF2D1431CFE
:10967000F9D0CB681871D2F8103443B1DB68CC68EC
:109680001B682360D2F81024D268116030BDC2F884
:109690001014C96800220A6030BD0000D01D0020EF
:1096A000F0B595B01C4615460F4608461A9E00F0C8
:1096B0001DFB182109A8FDF7F2FE0E96CDE909540D
:1096C0000023082203A9384600F025FB05980690E0
:1096D000BDF81000ADF81C00BDF81200ADF81E007A
:1096E00000208DF821000398082600F003000128CF
:1096F00002D0022818D032E003983346850AC0F31E
:10970000C2008DF8200003980FA9C0F38314A200B3
:10971000384600F000FB09A8009006AB22460FA9CE
:10972000284600F03FFA1AE00398840DC0F3C20007
:109730008DF82000082C01D2254600E0082533468C
:109740002A460FA9384600F0E6FA2E44641B09ABFE
:1097500006AA29460FA800F081F9002CEAD1384664
:1097600000F0CAFA15B0F0BD7047012001F0B0BC9E
:10977000084810B50178084A515C19B1001D01F084
:10978000B1F802E00C3000F0B1FFBDE8104000205D
:1097900001F09EBC8C1900201419002008B5034A62
:1097A00000924023024AFFF77BFF08BD21AD020073
:1097B000381C00200A4A012902EBC00007D0022908
:1097C00007D0032907D0042907D0002070470220C2
:1097D0007047042070470079704740797047000057
:1097E0001CBF020010B5FFF7C0FF04210348FFF7BC
:1097F00029FF02490120C968487110BD0CBF020051
:109800002DE9F04F8DB0FEF749FE18B100200DB0E4
:10981000BDE8F08F7E4C4FF0000BC4F818B4BFF3D6
:109820004F8F60680290A568D846284004EB8000FE
:109830000CE000BFD4F8180470B921680298814286
:1098400001D86160E2E7284004EB80000C3002A9F7
:10985000FFF7A6F90028EDD1002005AA029901EA38
:10986000050304EB8303491CDB6842F82030401CED
:1098700002910228F2D3059800F00300022802D0DA
:1098800001284DD0AAE005985022810D8946B2EBFF
:10989000905F00D850210E4666F39F500590083126
:1098A0005C4800F0DAF9070078D000F01FFA434670
:1098B000082205A9384600F036FA029908F1080A8C
:1098C0002940681A8000001D864222D9504D0C356F
:1098D00030B1C2B204EB8101301A90460C3104E081
:1098E0002946F2B2002590462846C6B2534638466D
:1098F00000F019FA0AEB080325B13246294638462A
:1099000000F011FA029909F1030001EB90000290B6
:109910003BE004EB81015346324638460C31EFE719
:109920000598C0F38310062800D30620059960F33C
:109930008911C1F38310801C05918100354800F026
:109940008CF907004AD000F0D1F94346082205A956
:10995000384600F0E8F908F1080800260FE0029800
:10996000434600EA0501401C04EB810102900422F9
:1099700038460C3100F0D7F908F10408761C059838
:10998000C0F38310B042EAD847B1D4F81054D4F8E9
:10999000180478B1384600F0AFF934E01EE0E8680A
:1099A0004079012804D12A68284639461268904730
:1099B000E8680568002DF2D1384600F09DF98DF871
:1099C00000B06846FEF738F9D4F8180408B90298D0
:1099D00060609DF80000FEF753F914E0D4F81044DD
:1099E00005E02168204689688847E0680468002C03
:1099F000F7D109480949401AC008022101EB00408B
:109A000007A100F017F8FEF749FD80F00100FEE61F
:109A1000D01D00208CBF02006CBF02001CBF0200E2
:109A20004261636B656E647320666C757368656410
:109A30000000000000231A4601F02CBA08B50123EB
:109A400000926A4601F026FA08BD1CB5CDE9002354
:109A500002236A4601F01EFA1CBD00002DE9F04702
:109A60000E4680461C469246082940D894F80C9031
:109A7000002020731946104600F0DAFF0025B54299
:109A800006D218F805201BA12046FFF78FFB03E044
:109A90001AA12046FFF78AFB6D1C082DEFD318A1F1
:109AA0002046FFF783FB0025B54212D218F8057057
:109AB0007E2F08D8FDF7D6FC0068C05D10F03E0F81
:109AC00001D03A4600E02E220EA12046FFF76EFBA1
:109AD00003E00DA12046FFF769FB6D1C082DE3D3C1
:109AE00001222146504600F085FF84F80C90BDE825
:109AF000F087000020253032780000002020200070
:109B00007C00000025630000200000000B4810B519
:109B1000FF218160002101604160C0F81814C0F885
:109B2000141480F82014064800F0E4F8002803D14B
:109B3000044800F037F9002010BD0000D01D0020BF
:109B40008CBF020044B7020002480349401AC00813
:109B5000704700008CBF02001CBF020013B56846AE
:109B6000FFF77CF908B100201CBD0248009950F8AD
:109B700031001CBD1CBF020070B509480125D0F89A
:109B8000104480F8205407E0E068457121682046C1
:109B900049688847E0680468002CF5D170BD000072
:109BA000D01D00202DE9FF4781460C9D00200C466A
:109BB0002F7B2873984616462946184600F038FF32
:109BC000072E42D2DFE806F004090F161F2A3600DE
:109BD00049462846FFF7EAFA37E049462846226810
:109BE000FFF7E4FA31E0D4E9002349462846FFF7BD
:109BF000DDFA2AE0A0680090D4E90023494628460F
:109C0000FFF7D4FA21E0D4E90201CDE90001D4E95B
:109C1000002349462846FFF7C9FA16E004F1080078
:109C200007C88DE80700D4E9002349462846FFF716
:109C3000BDFA0AE004F108000FC88DE80F00D4E96E
:109C4000002349462846FFF7B1FA0022294640463C
:109C500000F0D0FE2F73BDE8FF872DE9F041058AA3
:109C600080462D1F4819C01CB0FBF5F0C6B2404617
:109C7000FFF7C0F9041E19D0002020710120607187
:109C8000E58000272546761EC4F800800BE040469C
:109C9000FFF7B0F960B16179491C61712860054630
:109CA0007F1CC0F80080B742F1D32046BDE8F081A8
:109CB000204600F002F80020F8E72DE9F041457950
:109CC00001466B1E002201E00968521C9A42FBD338
:109CD0000F680146002605E038460C68FFF7ACF92E
:109CE0002146761CAE42F7D3BDE8F0810121001D6C
:109CF000FFF764B9FFF7B8B910B504460121001D9C
:109D0000FFF772F910F0FF0F04D12046BDE81040B4
:109D1000FFF7D3BF10BD1CB501920122009201AA2A
:109D2000FFF75CF81CBD1CB501920022009201AA4D
:109D3000FFF754F81CBD0000064910B5002048701C
:109D4000091D0860BFF35F8F0349044800F0FCF968
:109D5000002010BD80190020D0B502002C1C00206E
:109D600008B500208DF800006846FDF765FFF1EEAC
:109D7000100A20F09F00E1EE100ABFF35F8F084940
:109D80004020C1F880029DF80000FDF779FF00F047
:109D9000B7F908B141DF08BD20BF40BF20BF08BDF3
:109DA00004E000E0826800219160826811618268AD
:109DB00051618268D160826851608068016070473B
:109DC00008B5002242504058009008BD20B1034918
:109DD00009680160002070470E207047C8B7020074
:109DE000FEB502460E460846FFF7F0FF002866D192
:109DF000002400948DF8002001208DF802000194C9
:109E00000620ADF80400029469462020326869DF1C
:109E10002B492C4A891AC908012202EB014530B1AD
:109E200000F000FA024628462749FFF707FE009493
:109E30008DF801408DF80240019402948DF80340A2
:109E400069464020326869DF30B100F0EBF9024624
:109E500028461E49FFF7F2FD0094019402948DF804
:109E6000004069460120326869DF30B100F0DAF95C
:109E7000024628461649FFF7E1FDF82000900194BC
:109E800002946946A120326869DF30B100F0CAF956
:109E9000024628460F49FFF7D1FD00940194029431
:109EA0008DF800406946A020326869DF30B100F0CB
:109EB000B9F9024628460849FFF7C0FD0020FEBD5B
:109EC0007CBF02001CBF0200C4BD02000CBE020029
:109ED00024BD020070BD0200D0BC02002DE9F0419B
:109EE0000546076860DF804619491A482A68081A3B
:109EF000C608BA4219D9022000EB064416A1204632
:109F0000FFF798FD20463A461FA12B68FFF79DFDFD
:109F10004FF08050D0F80C012968800200F1005009
:109F2000421A204625A1FFF789FDB8F100004FF045
:109F300001040AD000F076F9024604EB06402AA19B
:109F4000FFF77CFD4046BDE8F0812F480470F9E73B
:109F50007CBF02001CBF0200496E737566666963B0
:109F600069656E742052414D20616C6C6F63617441
:109F7000656420666F722074686520536F66744450
:109F800065766963652E00004368616E67652074BD
:109F900068652052414D207374617274206C6F6348
:109FA0006174696F6E2066726F6D2030782578203D
:109FB000746F20307825782E000000004D6178699C
:109FC0006D756D2052414D2073697A6520666F7200
:109FD000206170706C69636174696F6E20697320B1
:109FE000307825782E00000073645F626C655F65D1
:109FF0006E61626C6528292072657475726E656485
:10A000002025732E00000000FB19002030B51448F5
:10A0100091B00078002820D05FF03405ADF84050B2
:10A0200010A903A861DF30B1052816D011B0BDE832
:10A030003040FDF797BD03AC0A49684600F084F84C
:10A0400007E000BFD0E9002120469047684600F0B5
:10A0500092F802980028E1D0F4E711B030BD00007A
:10A06000FB190020CCB702007CB5194C207808B150
:10A0700008207CBD0120A070002000F023FE1128E4
:10A0800019D0002000F036FE12480026006801902A
:10A090008DF800606846FDF7CFFD0F4901A810DF7D
:10A0A00005000AD0002020709DF80000FDF7E8FDB3
:10A0B0002DB128467CBD00207CBD0120F3E7A670B1
:10A0C000667000F09DFE012000F014FEF3E7000032
:10A0D000F819002060B70200E17A02000EB50749C6
:10A0E000684600F031F805E0D0E90010884768467E
:10A0F00000F041F802980028F6D10EBD7CB70200AE
:10A100000148007870470000F81900201FB5684624
:10A110004BDF30B1052814D004B0BDE81040FDF786
:10A1200021BD084901A800F00FF806E0D0E90021A0
:10A130000098904701A800F01EF803980028E6D088
:10A14000F4E71FBDE8B70200016009684160AFF3A2
:10A15000008010B5D0E900215368994201D1002157
:10A1600004E0D1E90034A34202D01946816010BD59
:10A1700008314160F0E7816800290BD002689268DD
:10A180000A44826041684B689A4203D108314160B9
:10A19000FFF7DFBF704770B50D460646446804E020
:10A1A000B2682946904718B1246820680028F7D182
:10A1B00020682860256070BD40680068704741686D
:10A1C0000868002801D002680A6070470246002033
:10A1D000526806E08B4203D1086810600120704786
:10A1E0001A461368002BF5D1704700000C4A10B5D1
:10A1F00002F594730EE0991AC91001EBD171491060
:10A2000002EBC1010C68844201D90B4602E005D281
:10A2100001F108029A42EED3002010BD486810BD3B
:10A22000F0B5020000B5FFF7E1FF002800D10148BA
:10A2300000BD0000DCB502004058002800D001201D
:10A24000704708B5002242504058009008BDD0F831
:10A250000403084000D0012070474058002800D077
:10A260000120704708B5002242504058009008BDB8
:10A2700008480068012110F0010F06D14FF0E020DE
:10A28000C02280F80024C0F80011034901200860B2
:10A290007047000000E100E0180500400649024652
:10A2A00000200B790BB1852070470A6001220A71EA
:10A2B00000224A717047000028190020044901203B
:10A2C000086004480168C1F300410029FAD17047D1
:10A2D0000C00004018040040002802D00149800111
:10A2E00008477047A1B502002DE9F0410E468046AF
:10A2F00000F068FB204D0028404616D0FEF722F9FA
:10A30000284490F858008009032802D001280AD078
:10A3100003E04046FFF73CF928B103214046BDE881
:10A32000F041FFF7E5B80221F8E700F057FB0028FD
:10A3300020D04046FEF706F90446104F4FF48070D7
:10A3400007EB840100EB8400D1F8102580B242F0C5
:10A350000102C1F81025FFF763F9002E0AD040462C
:10A36000FEF7F0F855F82000002803D00120A040A7
:10A37000C7F80403BDE8F081BC1A0020006000406B
:10A380002DE9FC41DFF8C080044608EB04000027FB
:10A3900090F930001346C0170E46401C01D0082724
:10A3A0004FE0B0781946C0F340022046FEF7A6F809
:10A3B0000546401C44D0B07841071CD4C0070DD0DE
:10A3C00068460094FFF7BAF8009900EB8100D0F8D6
:10A3D000001721F00201C0F8001707E00021737890
:10A3E000204600910A460191FEF7FFFF16492046DC
:10A3F0006431FEF759FEB078800718D513483178DC
:10A4000000EB8500D0F81025114B1A40C0F810253C
:10A410004FF47C524FF4403302EA042203EA014134
:10A420000A43D0F810150A43C0F8102509E008EBDC
:10A430000500327810F8581F41EA8211017000E0DF
:10A4400004273846BDE8FC81BC1A002000600040AB
:10A45000FFC0FCFF10B5FFF79BF8002800D00120DB
:10A4600010BD000070B5184D95F86A0008B10820BD
:10A4700070BD0020411E2A18401CC0B282F8301066
:10A480003028F8D300242046FEF72AF8641CE4B2F2
:10A490000C2CF8D30C490024C0204C66A1F868406D
:10A4A0000A4981F8000401264020891FC1F80001F3
:10A4B0004FF4BE70FFF7B4F80549F007C1F8040384
:10A4C00085F86A60204670BDBC1A002006E000E0F6
:10A4D00000600040034890F86A00002800D0012086
:10A4E00070470000BC1A00200121B1EB507F01D160
:10A4F000012070470020704738B50D4600F0E4FA9F
:10A50000040014D000208DF800006846FDF794FB8D
:10A51000207928B19DF80000FDF7B2FB112038BD6D
:10A520000120256020719DF80000FDF7A9FB0020A7
:10A5300038BD10B500F0C8FA002802D00021016033
:10A54000017110BD0149024800F0EABD281B00203E
:10A55000002000402DE9F0410546007916460F46DF
:10A5600000EB40012C4A01EBC00102EB810494F89E
:10A570002A1011B10820BDE8F081284951F82010B7
:10A580002868FFF7B9FF08B11120F4E739462846DB
:10A59000FDF790FB66603869206030004FF00106DF
:10A5A0002DD03F7F4FF48E712868FFF74AFE4FF49D
:10A5B000A2712868FFF745FE28681949C0F80413FE
:10A5C00028684FEA471140F30730002806DA00F008
:10A5D0000F0000F1E02080F8141D03E000F1E020FE
:10A5E00080F80014286840F3073000F01F0106FAD5
:10A5F00001F14009800000F1E020C0F80011286856
:10A600000421C0F800150020A061E06184F8290051
:10A6100044F8140FA675AEE7281B002078B5020099
:10A62000800002002DE9F05F054600790B4600EB43
:10A63000400101EBC000244901EB8004284600F0F2
:10A6400045F810B11120BDE8F09F62614FF000099C
:10A65000C4F82090A36084F828904FF48E784E467A
:10A6600041462868FFF7EDFD28684FF0010AC0F861
:10A6700008A02146286800F0E3FC606808BBD5F814
:10A6800000B067690FE000BF94F8280008B10F26FA
:10A6900015E041465846FFF7CFFD0028F4D021468B
:10A6A000584600F0CDFC206AB842F2D357464146E6
:10A6B0002868FFF7C1FD0028F9D02868C760C4F8F2
:10A6C00014903046BFE70000281B0020007900EB03
:10A6D000400101EBC000044901EB80004069002803
:10A6E00000D0012070470000281B00202DE9F04712
:10A6F000044600794FF0000900EB400101EBC00077
:10A70000254901EB80072068C0F80095786880B182
:10A7100020682249C0F808132068012140F307305F
:10A7200000F01F0291404009800000F1E020C0F8D5
:10A7300080112068D0F80C25D0F81485D0F8086571
:10A74000D0F810554FF0FF31C0F81415C0F80C15B3
:10A750002068C0F80815C0F81015501C02D010462B
:10A76000FEF78EFEB8F1FF3F02D04046FEF788FEAE
:10A77000681C02D02846FEF783FE701C02D03046CB
:10A78000FEF77EFE2068FFF7D4FE87F82A90C7F810
:10A790000490BDE8F0870000281B0020840202001E
:10A7A0000149024800F06ABD541B0020002000400F
:10A7B0002DE9F0410546164600790F46154A00EB93
:10A7C000C00102EB810494F8201011B10820BDE80B
:10A7D000F081114951F820102868FFF78DFE08B16B
:10A7E0001120F4E739462846FDF79FFA666038697C
:10A7F00020601EB1397F2846FEF790F928680821AD
:10A80000C0F800150020A061E0616061012184F8BA
:10A810002010DCE7541B00207CB502002DE9F04736
:10A8200004460E460079274900EBC00001EB800585
:10A8300017463046FFF758FE30B1204600F044F886
:10A8400020B11120BDE8F0871020FBE76F61AE60FA
:10A850004FF490774FF0000839462068FFF702FD6B
:10A860004FF4AC7631462068FFF7FCFC2068AA68FC
:10A870006969C0F84425C0F8481520684FF00109FF
:10A88000C0F808906868D0B9BA4651462068FFF70A
:10A89000E4FC074631462068FFF7DFFC0743F4D0AD
:10A8A00010B14FF00F0808E02068C0F80C90314656
:10A8B0002068FFF7D2FC0028F9D0002068614046EC
:10A8C000C0E70000541B00200079054900EBC000E0
:10A8D00001EB80004069002800D001207047000093
:10A8E000541B00202DE9F04704460079334900EB62
:10A8F000C00001EB80070125786880B120683049ED
:10A90000C0F80813206840F3073000F01F0105FA73
:10A9100001F14009800000F1E020C0F880112068BA
:10A92000D0F8001221F02001C0F800122068456024
:10A930004FF4AC7631462068FFF794FC2068C56080
:10A9400031462068FFF789FC0028F9D020684FF0D5
:10A950000009C0F800952068D0F80C25D0F81485BF
:10A96000D0F80865D0F810554FF0FF31C0F80C153D
:10A97000C0F814152068C0F80815C0F81015501C50
:10A9800002D01046FEF785FDB8F1FF3F02D04046E9
:10A99000FEF77FFD681C02D02846FEF77AFD701C8A
:10A9A00002D03046FEF775FD2068FFF7C2FD87F83C
:10A9B0002090C7F80490BDE8F0870000541B0020E9
:10A9C000100342000449084490F93000082801DBD4
:10A9D0000120704700207047BC1A00200449084439
:10A9E00090F93000082801D20120704700207047FC
:10A9F000BC1A002010B50C46017A052908D0407A0F
:10AA000038B1084808A102682046FEF7CFFB00E0F5
:10AA10001AB106A12046FEF7C9FB2046BDE810404A
:10AA2000FEF7D1BBD4190020257300000D0A0000E9
:10AA300038B5C3880D46044633B114A0009015A262
:10AA400016A12846FEF7B2FB217A05291CD0607AB0
:10AA500048B1A088FEF7AEFE164951F8202016A195
:10AA60002846FEF7A3FBA0880021FFF777F80346EE
:10AA70001049207A143951F8202001B02846BDE849
:10AA800030400EA1FEF792BB38BD00001B5B306D5D
:10AA9000000000001B5B313B33316D0025734C6FB0
:10AAA00067732064726F707065642028256429259F
:10AAB000730D0A00D4190020257300003C25733E55
:10AAC0002025733A200000000349884201D1034841
:10AAD000704700207047000000200040301900201F
:10AAE00070B50546FDF78FFE134C40B1D4E9040262
:10AAF0004FF08071411842F10000C4E904100021B8
:10AB00002846FDF7D1FD30B1606820B1606800F0E3
:10AB100007FA0020606001212846FDF7C5FD18B145
:10AB2000FDF770FFC4E90601284600F025FA284623
:10AB3000BDE8704000F034B85019002070B50546EB
:10AB400000200C460870FDF75DFFD5E90223101ABE
:10AB500063EB010300263146361A994112DAB0F54B
:10AB6000350F03D3FDF70AF80B4942184FF496034B
:10AB700000210A48FDF753FE10B10D2806D009E068
:10AB8000012070BD00210548FDF784FD284600F036
:10AB9000C7F92070002070BDFFFFB40058190020D5
:10ABA000F8B51A4C074600261948FFF705FBD0B147
:10ABB000616871B1D0E902106268D2E90232C91A43
:10ABC000904120D26068007F18B161681048FFF79B
:10ABD000E2FA00F041F905466946FFF7AFFF98B188
:10ABE000606840B10AE0606800280CD13846BDE8D2
:10ABF000F840FDF710BE3846FDF709FE65609DF888
:10AC000000000028D0D1F8BD6660CDE750190020C3
:10AC100090B5020070B5054688690C4600284FF4CF
:10AC2000847128460AD0FFF70CFBD5F81805626A34
:10AC3000E1688854606A401C606270BDFFF701FBE8
:10AC4000D5F8180570BD1FB501238DF80030CDE98A
:10AC50000121D0E90012684690471FBD1FB50123AE
:10AC60008DF80030CDE90121D0E900126846904707
:10AC70001FBD000038B50021012548B101280CD0C6
:10AC8000032809D1FFF7F4FABDE83840FEF742BACD
:10AC90004FF0E020C0F8805138BD8DF800106846B4
:10ACA000FCF7CAFF064C207808B9FEF717FAE068EF
:10ACB000401CE060A5709DF80000FCF7E1FF38BD86
:10ACC000A81A00203EB5044609496846FFF73CFA39
:10ACD00008E000BFD0E900212046904730B1684627
:10ACE000FFF749FA02980028F4D13EBD11203EBD7D
:10ACF00064B702003EB5044608496846FFF724FAE7
:10AD000007E000BFD0E90021204690476846FFF7E2
:10AD100032FA02980028F5D13EBD000070B702005B
:10AD200070B50D4C0020D2B22070201D0B4D037861
:10AD3000EB5C1BB1001DFFF771FD02E00C30FFF76B
:10AD400071FC08B1FCF70EFF6078002802D0217872
:10AD50000029FAD070BD00008819002014190020C5
:10AD60002DE9F0410746806A14468846C8B300259D
:10AD700031E000BFB96A05EB450001EB8006B08801
:10AD8000801CFE2802D90C20BDE8F0812288401CDE
:10AD900008F8020020881622401C80B2208008F8A3
:10ADA00000202088401C80B2208000EB0801308801
:10ADB00000F0EDFA2188084480B22080B28842B1C8
:10ADC000B16871B14044FCF751FB2088B188084458
:10ADD00020806D1CEDB297F82C00A842CAD8002044
:10ADE000D2E7FFE70720CFE7002805D1034901207C
:10ADF00048700020FDF7AEBB70470000A81A002085
:10AE000010B51620FCF7CAFDA0B1114890F8000457
:10AE10004009082811D20121814011F0EC0F0CD01B
:10AE20000C4882684FF480016AB1016841F48001E6
:10AE3000016010BD42F2010001E042F20200BDE8F3
:10AE40001040FCF78FBE4FF0E020C0F8001110BD9D
:10AE500016E000E0201C00200148FFF7B0B9000018
:10AE600090B50200C207002A03D000BF4FF00F02C6
:10AE700001E04FF0F00201D04FEA0111044B03EB67
:10AE80005003187800EA020040EA01001870704789
:10AE9000981B00202DE9F84F204D92468946064622
:10AEA0009846012269461846AF68FDF797FA58B3ED
:10AEB000009800210446801C09E000BF00EA070357
:10AEC0005AF8212005EB8303401C491CDA604145F8
:10AED000F4D34FEA164AFDF7D3FB4AEA0041601C5F
:10AEE000384005EB80003C4005EB8402C160D0682F
:10AEF00066F3C50068F3891069F39F2020F0030012
:10AF0000401C20F00400D06095F8200402E000BF4F
:10AF1000FEF776FC0028FBD1BDE8F88FD01D00209D
:10AF200070B50446124800250078F8B1F4B1207FCE
:10AF3000E0B1FDF767FDD4E90223801A994110D3EF
:10AF40002069002600B92677D4E9051088472069D2
:10AF500060B1217F51B1D4E9022110187141C4E9D7
:10AF6000020121460348FFF716F90125284670BD66
:10AF70005019002090B50200F8B51B4C69462068B6
:10AF8000FEF700F800260127184D29E0017821B1CD
:10AF900001290CD002291BD114E041680A7FBAB9FB
:10AFA0000F77416810480830FFF7F5F810E0416866
:10AFB0006868814201D16E600AE00B480830FFF7F3
:10AFC00005F905E0FFF748FF08B10677FAE72F70AB
:10AFD00069462068FDF7CBFF69462068FDF7D2FF80
:10AFE0000028D3D1F8BD000088B502005019002018
:10AFF000F8B50B4C0D46064669462068FDF7ACFFD8
:10B0000058B10670456069462068FDF7C6FF10B16B
:10B010000448FDF7E7FB0020F8BD0420F8BD000060
:10B0200088B5020058190020034880684108034889
:10B0300000224068FCF7E2BD3819002080B502000C
:10B0400070B50C4605464FF48E71FFF7FAF8216A89
:10B05000A068415C206A401C2062C5F81C1570BDC8
:10B060001FB500228DF80020029181680191426194
:10B07000D0E90012684690471FBD1FB500228DF829
:10B0800000200291816801914261D0E90012684676
:10B0900090471FBD1FB50A4601788DF80010416822
:10B0A0000191017A8DF80810C0680390044850F8A7
:10B0B0002210083850F82220684690471FBD000033
:10B0C00020190020014901200870704788190020CC
:10B0D00010B588B0044620220E496846FCF7C6F930
:10B0E00006200090C01F0190029003904FF0EB707B
:10B0F00006900CB1084A00E0002269460748FEF7B6
:10B1000021F808B1FCF72EFD0448001F447008B078
:10B1100010BD000024B70200C5B002008C19002049
:10B120002DE9FF470C4605464FF40071FFF78FF8F5
:10B1300001274FF40178002618B34FF4927949465D
:10B140002846FFF779F8E0B149462846FFF779F835
:10B15000C5F8088394F8290000B96F6002208DF8C3
:10B160000000D5F88004C5F880040390A06902901F
:10B17000E0680190A661E661D4E900126846904754
:10B1800028E004212846FFF762F818B34FF48471D1
:10B190002846FFF751F8E8B121462846FFF73AFD67
:10B1A000616AA069884215D1E06938B1E268616AD4
:10B1B000A0612069E6616662E06008E094F8290019
:10B1C00000B96F60C5F80883A661E268616A20462D
:10B1D000FFF739FD4FF48E7841462846FFF72CF8EB
:10B1E00080B16069216A814202D294F8280028B3B4
:10B1F00041462846FFF725F8606918B16169204685
:10B20000FFF72EFF4FF4A27841462846FFF714F8C7
:10B21000002818D041462846FFF713F894F8290073
:10B2200000B12F60A06900280DD0A661E268616AB4
:10B2300004B02046BDE8F047FFF705BD214628468B
:10B24000FFF7FEFEDEE7BDE8FF8700001FB50A46F8
:10B2500001788DF8001041680191017A8DF808108D
:10B26000C0680390044850F82210083850F8222093
:10B27000684690471FBD0000201900202DE9FF41BE
:10B280000C464FF4927705463946FEF7E6FF002656
:10B29000B8B139462846FEF7E5FF02208DF80000D8
:10B2A000D5F88004C5F880040390D5F83C050290D9
:10B2B000E0680190A661E661D4E900126846904713
:10B2C00023E04FF4887739462846FEF7C6FFE0B101
:10B2D00039462846FEF7C6FFD5F83C15A0698842D6
:10B2E00013D1E06960B1E268D5F8000220F02000D7
:10B2F000C5F80002E069A0612069E661E06001E054
:10B30000A661E2682046FFF7A9FC4FF4A277394610
:10B310002846FEF7A2FF68B139462846FEF7A2FF8D
:10B32000A06938B1A661E661D5F83C152046E2680F
:10B33000FFF794FC4FF4907631462846FEF78DFFD8
:10B3400060B131462846FEF78DFF0120E860606954
:10B3500020B1D5F84C152046FFF78FFE4FF4AC76A0
:10B3600031462846FEF779FF00280ED031462846A0
:10B37000FEF778FF6069002807D0D5F84C1504B0B7
:10B380002046BDE8F041FFF778BEBDE8FF810870B8
:10B39000000A4870022070472DE9F05F8346DDE91E
:10B3A0000A4A994690460D460846012703E000BF29
:10B3B000B0FBF8F07F1C4045FAD2B94500D94F46A2
:10B3C0005FEACA7012D18CB15FEA8A7002D5B9F116
:10B3D000000F01D0202607E0302605E03146584610
:10B3E000641EFDF743F80CB1A742F7D35FF00106E6
:10B3F000B9F1010F02D9A9F1010903E0B5FBF6F09B
:10B40000404502D306FB08F6F2E7DFF83C9000BFA8
:10B41000B5FBF6F000FB165519F800105846FDF77D
:10B4200025F8B6FBF8F6002EF2D15FEACA7009D013
:10B43000002C07D0A74205D220215846641EFDF7F4
:10B4400015F8F5E7BDE8F09FA6B5020070B50C460B
:10B450000546FDF72DF8002807D04268002A04D0E1
:10B4600021462846BDE87040104770BD2DE9FC41DB
:10B470001646DDE90854CDE900541F4680460222F5
:10B4800000F00CF8002807D1CDE900543B4610220B
:10B490003146404600F002F8BDE8FC812DE9FC5F32
:10B4A0000026DDE90C4B994692468E468046278859
:10B4B000354630E0D8F80400002200EB85006946EC
:10B4C0000068019001A864DF002830D19DF80000D9
:10B4D00050451FD10EB1002100E00221228808440E
:10B4E0001118594522D846B9521C90B2208009F84B
:10B4F00000E02088401C20800126218801A801EB63
:10B500000902694664DF002811D120889DF80010E7
:10B51000084420806D1CB8F80000A842CADC56B16F
:10B520002088C01B401E80B2FF2802D90C20BDE835
:10B53000FC9F09F807000020F9E70D0E0F100B0C17
:10B5400018190000381A0020581A0020881A002004
:10B550000B000300958002000C00030095800200A0
:10B560001800030095800200190003009580020076
:10B57000000000500003005045A50200A1A70200F2
:10B5800003000000781B0020B81B0020010006000B
:10B5900000000000701900209985020000000000E2
:10B5A0000338FDD8704730313233343536373839C7
:10B5B00041424344454600000000000000000000F6
:10B5C000000000000000000000000000000000007B
:10B5D000B8B50200D0B5020004000000556E6B6ED5
:10B5E0006F776E206572726F7220636F6465000002
:10B5F00000000000F4BB020001000000A0BA02003D
:10B600000200000094B802000300000014BB020016
:10B610000400000068BB02000500000048BA0200F8
:10B6200006000000E4B902000700000050BB020061
:10B63000080000005CBA020009000000C0BA020065
:10B640000A000000DCBB02000B0000007CB8020016
:10B650000C00000074BA02000D00000044BC02009F
:10B660000E00000040BB02000F0000007CBB020087
:10B6700010000000B0BB02001100000058BC020026
:10B68000120000002CBC020013000000C8BB020026
:10B6900080000000FCB902008100000038B90200FF
:10B6A00082000000F8B8020083000000D8B8020051
:10B6B0008400000014B902008500000020BA0200D6
:10B6C0008600000028BB020090000000C4B9020000
:10B6D00091000000B8B802009200000088BA020091
:10B6E0000082000090BB020001820000DCBA020070
:10B6F00002820000F8BA02000084000054B902007F
:10B700000184000000BC0200028400009CB9020019
:10B710000384000078B902009D970200719702002F
:10B7200069970200FFFFFFFFFFFFFFFFFFFFFFFF23
:10B73000FFFFFFFF00000000000000000000D60136
:10B7400006010000381D00207F000000B81D002009
:10B7500000000000000000000000000000000000E9
:10B760000100000750B7020060B7020008000000A7
:10B7700088B7020098B702000800000098B70200DE
:10B78000A8B7020008000000B8BF0200C0BF020056
:10B790000000000000000000A8BF0200B8BF0200C7
:10B7A0000000000000000000000000000000000099
:10B7B0000000000000000000000000000000000089
:10B7C0000000000000000000D8180020A8B7020008
:10B7D000C8B7020008000000A0BF0200A8BF020016
:10B7E0000000000000000000D8B70200E8B7020027
:10B7F000080000000040404040404040404041417F
:10B800004141414040404040404040404040404035
:10B8100040404040400502020202020202020202CF
:10B8200002020202022020202020202020202002CC
:10B83000020202020202909090909090101010105C
:10B8400010101010101010101010101010101010F8
:10B85000020202020202888888888888080808088C
:10B860000808080808080808080808080808080858
:10B870000202020240000000F5B702004E52465F8D
:10B880004552524F525F494E56414C49445F4441E4
:10B89000544100004E52465F4552524F525F534F43
:10B8A00046544445564943455F4E4F545F454E41CB
:10B8B000424C4544000000004E52465F4552524FF4
:10B8C000525F464541545552455F4E4F545F454E79
:10B8D00041424C45440000004E52465F4552524F93
:10B8E000525F4D555445585F554E4C4F434B5F4644
:10B8F00041494C45440000004E52465F4552524F6C
:10B90000525F4D555445585F4C4F434B5F4641493C
:10B910004C4544004E52465F4552524F525F4D5582
:10B920005445585F434F4E445F494E49545F46412A
:10B93000494C4544000000004E52465F4552524F6C
:10B94000525F4D555445585F494E49545F464149F1
:10B950004C4544004E52465F4552524F525F424C56
:10B96000455F495053505F52585F504B545F54529B
:10B97000554E4341544544004E52465F4552524F46
:10B98000525F424C455F495053505F504545525FAE
:10B9900052454A4543544544000000004E52465F1C
:10B9A0004552524F525F424C455F495053505F4C95
:10B9B000494E4B5F444953434F4E4E4543544544D3
:10B9C000000000004E52465F4552524F525F4150B8
:10B9D000495F4E4F545F494D504C454D454E54457F
:10B9E000440000004E52465F4552524F525F4E4F48
:10B9F000545F535550504F52544544004E52465F89
:10BA00004552524F525F4D4F44554C455F4E4F5437
:10BA10005F494E495449414C495A45440000000091
:10BA20004E52465F4552524F525F4D4F44554C4522
:10BA30005F414C52454144595F494E495449414C3C
:10BA4000495A4544000000004E52465F4552524F4D
:10BA5000525F4E4F545F464F554E44004E52465F24
:10BA60004552524F525F494E56414C49445F5354E0
:10BA7000415445004E52465F4552524F525F444139
:10BA800054415F53495A45004E52465F4552524F0A
:10BA9000525F494F5F50454E44494E4700000000F9
:10BAA0004E52465F4552524F525F5356435F484194
:10BAB0004E444C45525F4D495353494E4700000098
:10BAC0004E52465F4552524F525F494E56414C4985
:10BAD000445F4C454E475448000000004E52465FBC
:10BAE0004552524F525F4452565F5457495F455238
:10BAF000525F414E41434B004E52465F4552524FBA
:10BB0000525F4452565F5457495F4552525F444E0C
:10BB100041434B004E52465F4552524F525F494E91
:10BB20005445524E414C00004E52465F4552524FD2
:10BB3000525F53544F524147455F46554C4C0000AD
:10BB40004E52465F4552524F525F4E554C4C00008C
:10BB50004E52465F4552524F525F494E56414C49F4
:10BB6000445F504152414D004E52465F4552524F44
:10BB7000525F4E4F5F4D454D000000004E52465FF4
:10BB80004552524F525F464F5242494444454E003F
:10BB90004E52465F4552524F525F4452565F545781
:10BBA000495F4552525F4F56455252554E00000074
:10BBB0004E52465F4552524F525F494E56414C4994
:10BBC000445F4144445200004E52465F4552524F3A
:10BBD000525F5245534F5552434553004E52465FB4
:10BBE0004552524F525F494E56414C49445F464C74
:10BBF000414753004E52465F53554343455353000C
:10BC00004E52465F4552524F525F424C455F49503B
:10BC100053505F4348414E4E454C5F414C52454165
:10BC200044595F4558495354530000004E52465FF3
:10BC30004552524F525F434F4E4E5F434F554E5405
:10BC4000000000004E52465F4552524F525F544929
:10BC50004D454F55540000004E52465F4552524FDD
:10BC6000525F4255535900007761726E696E6700EA
:10BC700064656275670000001B5B313B33306D000B
:10BC80001B5B306D000000001B5B313B33316D00EE
:10BC90001B5B313B33326D001B5B313B33336D003B
:10BCA0001B5B313B33346D001B5B313B33356D0027
:10BCB0001B5B313B33366D001B5B313B33376D0013
:10BCC000696E666F000000006572726F720000009E
:10BCD00073645F626C655F6366675F736574282970
:10BCE0002072657475726E656420257320776865AF
:10BCF0006E20617474656D7074696E6720746F2056
:10BD000073657420424C455F47415454535F43462A
:10BD1000475F534552564943455F4348414E474567
:10BD2000442E000073645F626C655F6366675F73D7
:10BD3000657428292072657475726E656420257398
:10BD4000207768656E20617474656D7074696E67C4
:10BD500020746F2073657420424C455F434F4D4DF6
:10BD60004F4E5F4346475F56535F555549442E003B
:10BD700073645F626C655F6366675F7365742829CF
:10BD80002072657475726E6564202573207768650E
:10BD90006E20617474656D7074696E6720746F20B5
:10BDA00073657420424C455F47415454535F43468A
:10BDB000475F415454525F5441425F53495A452EA4
:10BDC0000000000073645F626C655F6366675F73A9
:10BDD000657428292072657475726E6564202573F8
:10BDE000207768656E20617474656D7074696E6724
:10BDF00020746F2073657420424C455F434F4E4E54
:10BE00005F4346475F4741502E00000073645F6206
:10BE10006C655F6366675F7365742829207265745B
:10BE200075726E6564202573207768656E20617475
:10BE300074656D7074696E6720746F20736574200B
:10BE4000424C455F4741505F4346475F524F4C4528
:10BE50005F434F554E542E00636C6F636B000000C0
:10BE6000434C4F434B0000004750494F544500009E
:10BE70005052530055415254000000005541525455
:10BE8000450000006170705F627574746F6E000031
:10BE90006170705F74696D65720000007077725F29
:10BEA0006D676D7400000000736F72746C69737459
:10BEB00000000000756172745F6C6F675F626163A0
:10BEC0006B656E6400000000617070006E72665FEA
:10BED000736468006E72665F7364685F626C6500AD
:10BEE0006E72665F7364685F736F6300C0BF020049
:10BEF000D8180020280100007C790200E8C0020068
:10BF0000001A0020F82700008C79020018B7020000
:10BF100000000000B4BE0200A019002058BE0200BC
:10BF20000000000060BE02000000000068BE0200C9
:10BF30000000000070BE02000000000074BE02009D
:10BF4000000000007CBE02000000000084BE020071
:10BF50000000000090BE0200000000009CBE020035
:10BF600000000000A8BE020000000000C8BE0200E1
:10BF700000000303CCBE020000000303D4BE020095
:10BF800000000303E0BE020000000303B01900201C
:10BF9000A8190020B0190020781C0020180000000B
:10BFA000E9AD0200000000000DA00200000000004A
:10BFB0000DA102000000000075AC020000000000AE
:10BFC000FF000000181A00201F0000000000000001
:10BFD0000000000002150112233445566778899A43
:10BFE000ABBCCDDEEFF001020304C3000000000093
:10BFF0000000000000000000000000000000000041
:10C000000000000000000000000000000000000030
:10C010000000000000000000000000000000000020
:10C020000000000000000000000000000000000010
:10C030000000000000000000000000000000000000
:10C04000001001401100040000000000000000008A
:10C0500000000000000000000000000000000000E0
:10C0600000000000000000000000000000000000D0
:10C070000000000000000000002000400000000060
:10C08000002000400000000000000000FF00000051
:10C0900000000000000000000000000000000000A0
:10C0A000000000000000000000000000C8BC02000A
:10C0B00068BC0200C0BC020070BC020080BC020070
:10C0C00078BC020088BC020090BC020098BC020050
:10C0D000A0BC0200A8BC0200B0BC0200B8BC0200B8
:10C0E000000000000090D003FFFFFFFFFFFFFFFFF5
:040000050002720182
:00000001FF
